:100000000C9441010C9472010C9472010C947201D5
:100010000C9472010C9472010C9472010C94720194
:100020000C9472010C9472010C9472010C94720184
:100030000C9472010C9472010C9472010C94720174
:100040000C9472010C9472010C9472010C94720164
:100050000C9472010C9472010C9472010C94FB08C4
:100060000C9472010C94C5080C949B080C947201BA
:100070000C9472010C9472010C9472010C94720134
:100080000C9472010C9472010C9472010C94720124
:100090000C9472010C9472010C9472010C94450939
:1000A0000C9472010C9472010C9472010C94720104
:1000B0000C9472010C9472010C9472010C947201F4
:1000C0000C9472010C9472010C9472010C947201E4
:1000D0000C9472010C9472010C9472010C947201D4
:1000E0000C9472010C942A030C942D020C94FB02C4
:1000F0000C94CC030C9416030C940E030C94F7028E
:100100000C94C4010C9429030C9420030C947A02DF
:100110000C94F5010C94E7010C9408030C94FE0276
:100120000C94EF020C948C030C94F3020C94E902EF
:100130000C941C030C9404030C945A060C941203A4
:100140000C9497010C945B030C94D3010C94080657
:100150000C9424030C94650A0C9420080C942E0330
:1001600000002100240027002A002D003000330069
:1001700001010000040107010A010000220025001E
:1001800028002B002E003100340002010000050180
:1001900008010B01000020002300260029002C008C
:1001A0002F003200000100000301060109010505CE
:1001B0000505070508080808020202020A0A0808DD
:1001C000040404040101010101010101030303030B
:1001D00003030303040707070C0C0C0C0C0C0C0C9A
:1001E0000202020206060606060606060B0B0B0BAB
:1001F0000B0B0B0B010210202008081020401020D0
:1002000040800201020108040201010204081020DA
:1002100040808040201008040201800402018040D8
:100220002010080402010804020101020408102041
:100230004080010204081020408000000A0B0209DF
:100240000C0D0E0807030401000000000000000070
:10025000000000000000000000000000000000009E
:10026000000000000000121110000000000000005B
:10027000000000000000000000000000000000007E
:10028000650A11241FBECFEFD1E2DEBFCDBF00E073
:100290000CBF25E0A8E5B3E001C01D92A030B20775
:1002A000E1F713E0A0E0B2E0E2EAF1E200E00BBF28
:1002B00002C007900D92A835B107D9F711E0C1E44B
:1002C000D1E000E006C021970109802FFE010E94C5
:1002D000A80EC034D10780E00807A9F70E94BB0B25
:1002E0000C94CF100C94000096E0899FD00111244B
:1002F000A357BB4F90967C936E935F9791E0919636
:100300009C939197E091FA04F091FB049091F90489
:10031000992339F0309751F0811108C08091A904D8
:100320001994309719F05C968C91FACF0895AF929A
:10033000BF92CF92DF92EF92FF920F931F93CF93D2
:10034000DF936C017B018B01040F151FEB015E0134
:10035000AE18BF08C017D10759F06991D601ED91C9
:10036000FC910190F081E02DC6011995892B79F758
:10037000C501DF91CF911F910F91FF90EF90DF901A
:10038000CF90BF90AF900895FC01538D448D252FE1
:1003900030E0842F90E0821B930B541710F0CF961F
:1003A000089501970895FC01918D828D981761F051
:1003B000A28DAE0FBF2FB11D5D968C91928D9F5F68
:1003C0009F73928F90E008958FEF9FEF0895FC0147
:1003D000918D828D981731F0828DE80FF11D858DFA
:1003E00090E008958FEF9FEF0895FC01918D228D8D
:1003F000892F90E0805C9F4F821B91098F73992712
:10040000089588ED93E00E94F50121E0892B09F41D
:1004100020E0822F0895FC01A48DA80FB92FB11DF3
:10042000A35ABF4F2C91848D90E001968F7399272A
:10043000848FA689B7892C93A089B1898C91837008
:1004400080648C93938D848D981306C00288F38901
:10045000E02D80818F7D80830895EF92FF920F932E
:100460001F93CF93DF93EC0181E0888F9B8D8C8D60
:1004700098131AC0E889F989808185FF15C09FB754
:10048000F894EE89FF896083E889F9898081837017
:10049000806480839FBF81E090E0DF91CF911F91C6
:1004A0000F91FF90EF900895F62E0B8D10E00F5FE7
:1004B0001F4F0F731127E02E8C8D8E110CC00FB6BD
:1004C00007FCFACFE889F989808185FFF5CFCE0155
:1004D0000E940B02F1CFEB8DEC0FFD2FF11DE35AC3
:1004E000FF4FF0829FB7F8940B8FEA89FB898081D8
:1004F0008062CFCFCF93DF93EC01888D8823B9F052
:10050000AA89BB89E889F9898C9185FD03C080811E
:1005100086FD0DC00FB607FCF7CF8C9185FFF2CF9B
:10052000808185FFEDCFCE010E940B02E9CFDF91E4
:10053000CF91089580E090E0892B29F00E9401027C
:1005400081110E94000080E090E0892B49F080E05A
:1005500090E0892B29F00E94000081110E94000088
:1005600080E090E0892B49F080E090E0892B29F031
:100570000E94000081110E94000080E090E0892B21
:1005800049F080E090E0892B29F00E940000811161
:100590000C94000008958150823108F05AC0E82F71
:1005A000F0E08827E952FD4F8F4F0C94A80EF70218
:1005B000FB02E902EF02F3022903FE02040308032F
:1005C0000E03120316031C032003290324032A032A
:1005D0002E03809180008F77809380000895809112
:1005E00080008F7DF9CF80918000877FF5CF84B523
:1005F0008F7784BD089584B58F7DFBCF8091B00047
:100600008F778093B00008958091B0008F7DF9CFEF
:10061000809190008F778093900008958091900052
:100620008F7DF9CF80919000877FF5CF8091A000DA
:100630008F778093A00008958091A0008F7DF9CFDF
:100640008091A000877FF5CF809120018F778093E4
:1006500020010895809120018F7DF9CF80912001A4
:10066000877FF5CFCF93DF93282F30E0F901E65C49
:10067000FD4F8491F901EC50FE4FD491F901E25500
:10068000FE4FC491CC23A1F081110E94CB02EC2F2C
:10069000F0E0EE0FFF1FEC56FE4FA591B491EC91E8
:1006A000ED2381E090E009F480E0DF91CF9108959F
:1006B00080E090E0FACF862F0C9432031F93CF9303
:1006C000DF93282F30E0F901E65CFD4F8491F901BA
:1006D000EC50FE4FD491F901E255FE4FC491CC236A
:1006E000A9F0162F81110E94CB02EC2FF0E0EE0F43
:1006F000FF1FE658FE4FA591B4918FB7F894EC9187
:10070000111108C0D095DE23DC938FBFDF91CF910C
:100710001F910895DE2BF8CF862F642F0C945E0373
:10072000CF93DF9390E0FC01EC50FE4F2491825573
:100730009E4FFC0184918823C9F090E0880F991F97
:10074000FC01E05AFE4FA591B491FC01E658FE4F22
:10075000C591D49161110DC09FB7F8948C912095EB
:1007600082238C938881282328839FBFDF91CF9198
:100770000895623051F49FB7F8943C91822F809590
:1007800083238C93E8812E2BEFCF8FB7F894EC91D5
:100790002E2B2C938FBFEACF862F642F0C949003BF
:1007A0003FB7F8948091CE039091CF03A091D003EE
:1007B000B091D10326B5A89B05C02F3F19F0019633
:1007C000A11DB11D3FBFBA2FA92F982F8827BC01AB
:1007D000CD01620F711D811D911D42E0660F771FD3
:1007E000881F991F4A95D1F708958F929F92AF92D3
:1007F000BF92CF92DF92EF92FF924B015C010E9479
:10080000D0036B017C010E94D0036C197D098E0915
:100810009F09683E734081059105A8F321E0821A83
:100820009108A108B10888EEC80E83E0D81EE11C2B
:10083000F11C81149104A104B10429F7FF90EF90F9
:10084000DF90CF90BF90AF909F908F9008952FB77B
:10085000F8946091CA037091CB038091CC0390917E
:10086000CD032FBF08950F931F930E942704609319
:10087000E0037093E1038093E2039093E30388ED38
:1008800093E00E94D30197FF1DC00E9427040091AE
:10089000E0031091E1032091E2033091E303601B38
:1008A000710B820B930B0091DC031091DD032091FF
:1008B000DE033091DF036017710782079307F8F2B8
:1008C0008FEF9FEF1F910F9108950F931F93CF9379
:1008D000DF93C82FD62F86E0C89FF0011124E3577D
:1008E000FB4F11A2878D90A181309105F1F058F056
:1008F00082309105F1F1039709F440C0DF91CF9167
:100900001F910F9108956623C9F361E070E08C2F69
:100910000E9474010E9427046093E5047093E6042A
:100920008093E7049093E804E9CF0E9427040091A4
:10093000E5041091E6042091E7043091E804AB014E
:10094000BC01401B510B620B730B8091F70490911B
:10095000F804B0E0A0E084179507A607B70748F4AD
:1009600062E070E08C2FDF91CF911F910F910C947A
:10097000740163E070E0D111C1CFF4CF70E060E0AA
:10098000F1CF6F927F928F929F92AF92BF92CF9250
:10099000DF92EF92FF920F931F93CF93DF9381E04B
:1009A0008093F9040E9427040091E9041091EA045D
:1009B0002091EB043091EC04AB01BC01401B510BC6
:1009C000620B730B8091F5049091F604B0E0A0E007
:1009D00084179507A607B70708F014C1C0E08091F7
:1009E000F304C81760F4E091EF04F091F004EC0F09
:1009F000F11D62E080810E949003CF5FF0CF712CE7
:100A0000812C912C540183948091F404781608F081
:100A10005FC0072D10E0E091F104F091F204E00FC7
:100A2000F11F61E080810E949003E091F104F09158
:100A3000F204E00FF11F60E080810E945E03D501A7
:100A4000C401072C04C0880F991FAA1FBB1F0A945A
:100A5000D2F76C017C01E094F094612C8091F30456
:100A60006816F8F4C62DD0E0E091EF04F091F004A0
:100A7000EC0FFD1F80810E9432032496CC0FDD1FF6
:100A8000C357DB4F892B41F4888199818C299D299B
:100A9000998388836394E2CF888199818E219F21F5
:100AA000F7CFE091F104F091F204E00FF11F61E063
:100AB00080810E945E038091F1049091F204080FFE
:100AC000191F60E0F80180810E94900373949CCF0D
:100AD000CDE8D4E0FE018FEF9FEF278D30A1232BCF
:100AE00021F4148E968F858F11A2369624E0E93C6E
:100AF000F20799F7F12C96E0D92E8091F304F816BD
:100B000008F050C0E12C0F2D10E0000F111F0B5604
:100B10001B4F2091F404E21608F042C0F8016081F6
:100B200071810E2C02C0769567950A94E2F7F29EC9
:100B3000900111242E0D311DEDE8F4E080E0458D8B
:100B4000568D2417350709F461C08F5F36968A30B9
:100B5000B1F760FF23C0EDE8F4E090E080E0448D61
:100B6000411117C0E091ED04F091EE04E20FF31F84
:100B70004081D89EF001D99EF00D1124E357FB4F20
:100B8000448F368F258F10A2178E61E00E94650476
:100B900005C0019636968A30910509F7E394B9CFDE
:100BA000F394ABCF10E089A18111182F2696F4E0C1
:100BB000C93CDF07C1F70E9427046093E9047093E2
:100BC000EA048093EB049093EC041123D9F0809114
:100BD000AE048823B9F08091AC049091AD040197E4
:100BE00089F48091A904DF91CF911F910F91FF901B
:100BF000EF90DF90CF90BF90AF909F908F907F90BD
:100C00006F9008951092F90480E0EDCF6170BECF2F
:100C1000089520917F03260F3327331F213231059A
:100C2000ECF42091A303FC0190E080E0243069F013
:100C300082E00895A0917F032191AC01415A5C4F5D
:100C4000A40FB52FB11D2C930196861798F38091B0
:100C50007F03680F60937F0380E0089581E008952B
:100C600008958FEF9FEF08958FEF9FEF0895809184
:100C7000580390E09195819591090895CF93DF9362
:100C8000CB01EA01642F0E940906CE01DF91CF91CA
:100C90000895CF93DF931F92CDB7DEB7698361E0EC
:100CA000CE0101960E94090681E090E00F90DF914D
:100CB000CF91089590E080E008951092D7031092AC
:100CC000D60360E083E20E945E0360E084E20E945B
:100CD0005E0360E085E20C945E030F931F93CF9355
:100CE000DF93EC0188819981009759F02A813B813B
:100CF0002617370730F081E0DF91CF911F910F91D8
:100D000008958B016F5F7F4F0E94D50F009759F0B8
:100D1000998388831B830A832C813D81232B59F778
:100D2000FC011082E8CF80E0E7CFCF93DF93EC01A6
:100D300088819981009711F00E944C0F19821882C6
:100D40001D821C821B821A82DF91CF910895EF923F
:100D5000FF920F931F93CF93DF93EC017B011982D6
:100D600018821B821A821D821C82FB0101900020C6
:100D7000E9F731978F01061B170BB8010E946D062A
:100D8000811109C0CE01DF91CF911F910F91FF908A
:100D9000EF900C9495061D830C83B701888199818F
:100DA000DF91CF911F910F91FF90EF900C94C8109D
:100DB000FC0180819181009711F00C944C0F0895F3
:100DC000CF93DF93EC0160E08E810E945E0361E0CF
:100DD0008E810E945E0360E08E810E945E038BE83C
:100DE00091E00197F1F7DF91CF910895CF92DF92D3
:100DF000EF92FF920F931F93CF93DF936C017C01CF
:100E000087E0E80EF11CD0E0C0E0062F10E0B8014A
:100E10000C2E02C0759567950A94E2F76170F70190
:100E200081917F010E945E032196C430D10579F73C
:100E3000C601DF91CF911F910F91FF90EF90DF904E
:100E4000CF900C94E006CF92DF92EF92FF920F9337
:100E50001F93CF93DF93EC01F62E642F8C810E94B9
:100E60005E038D818F3F19F060E00E945E030F2DBD
:100E700010E08F8584FF25C06E0187E0C80ED11C6D
:100E8000F12CE12CB8010E2C02C0759567950A94DF
:100E9000E2F76170F60181916F010E945E03FFEF3E
:100EA000EF1AFF0A88E0E816F10461F7CE01DF913E
:100EB000CF911F910F91FF90EF90DF90CF900C9406
:100EC000E006B80184E0759567958A95E1F7CE0153
:100ED0000E94F6066F2DCE01DF91CF911F910F91E9
:100EE000FF90EF90DF90CF900C94F60640E0682FD3
:100EF00085E794E00C942307CF93DF93EC016623FE
:100F000039F081E00E9476078BE39FE10197F1F7CA
:100F1000E0918804E33090F4E150F0E0EB58FB4FAF
:100F2000848980680E9476074C815D81688179811F
:100F300085E794E0DF91CF910C949701E2E0EDCF4B
:100F4000CF93DF9300D000D0CDB7DEB78091D6032A
:100F50009091D703039708F05DC06FE572E0CE0172
:100F600001960E94A70661E0CE0101960E947C07CF
:100F7000CE0101960E94D80664E670E080E090E021
:100F80000E94F50365E772E0CE0101960E94A70674
:100F900061E0CE0101960E947C07CE0101960E947D
:100FA000D80664E670E080E090E00E94F50369E80E
:100FB00072E0CE0101960E94A70661E0CE01019683
:100FC0000E947C07CE0101960E94D8068091D6032C
:100FD0009091D70301969093D7038093D6038230E4
:100FE000910591F08330910591F0019721F461E032
:100FF00083E20E945E0326960FB6F894DEBF0FBE12
:10100000CDBFDF91CF91089561E084E2F2CF61E03E
:1010100085E2EFCF6AE972E0CE0101960E94A70651
:1010200061E0CE0101960E947C07CE0101960E94EC
:10103000D80664E670E080E090E00E94F503DBCF24
:1010400041E00E94230781E090E008951F93CF9331
:10105000DF9385ED8093BC0080915B0390915C03EE
:10106000A0915D03B0915E030796A11DB11D23E021
:10107000B695A795979587952A95D1F72091BC00AD
:1010800024FD03C01092A30352C040915B03509112
:101090005C0360915D0370915E03452B462B472BEB
:1010A00069F30097A105B10541F025E32A95F1F711
:1010B00000000197A109B109E1CF80915A03C1E075
:1010C000C0935903882399F1D091B8001091BA00C8
:1010D0008091BC008A7B8093BC0060E084E10E9428
:1010E0005E0360E085E10E945E031092A303C0935B
:1010F000A5031092A40361E084E10E945E0361E015
:1011000085E10E945E038091B9008E7F8093B900D3
:101110008091B9008D7F8093B90088E48093B800F6
:1011200085E48093BC001093BA00D093B800DF919F
:10113000CF911F9108951F920F920FB60F92112415
:101140000BB60F922F933F934F935F936F937F93C1
:101150008F939F93AF93BF93EF93FF9388ED93E0AB
:101160000E940B02FF91EF91BF91AF919F918F91E0
:101170007F916F915F914F913F912F910F900BBE97
:101180000F900FBE0F901F9018951F920F920FB6E1
:101190000F9211240BB60F922F938F939F93EF937F
:1011A000FF93E091E803F091E9038081E091EE0381
:1011B000F091EF0382FD1DC090818091F1038F5F5C
:1011C0008F732091F203821741F0E091F103F0E078
:1011D000E852FC4F958F8093F103FF91EF919F911F
:1011E0008F912F910F900BBE0F900FBE0F901F90FD
:1011F00018958081F2CF1F920F920FB60F92112493
:101200002F933F938F939F93AF93BF938091CA0384
:101210009091CB03A091CC03B091CD033091C90341
:1012200023E0230F2D3758F50196A11DB11D209302
:10123000C9038093CA039093CB03A093CC03B093CC
:10124000CD038091CE039091CF03A091D003B091B4
:10125000D1030196A11DB11D8093CE039093CF03BE
:10126000A093D003B093D103BF91AF919F918F9181
:101270003F912F910F900FBE0F901F90189526E869
:10128000230F0296A11DB11DD2CF1F920F920FB650
:101290000F9211240BB60F922F933F934F935F93AE
:1012A0006F937F938F939F93AF93BF93EF93FF932E
:1012B0008091B900887F803609F44DC008F040C0A5
:1012C000883209F4A7C028F5803109F49BC0C8F41E
:1012D000882309F4F7C0883009F494C0FF91EF9196
:1012E000BF91AF919F918F917F916F915F914F913E
:1012F0003F912F910F900BBE0F900FBE0F901F903C
:101300001895883109F486C0803241F78093A20392
:1013100014C0803409F49BC040F48033B9F388339F
:10132000E9F68093A20385ECAEC0803509F483C052
:10133000883509F494C0883489F60E942608CECFF7
:10134000883909F48AC038F5883729F050F488368E
:1013500011F0803719F683E08093A3031092A10364
:1013600055C0883809F479C0803919F0803809F0FF
:10137000B5CF8091A103803208F06FC0E091A10346
:1013800081E08E0F8093A1038091BB00F0E0EF57C6
:10139000FC4F80833BC0803B39F0D0F4803A09F4A5
:1013A00077C0883A09F09ACF84E08093A303109223
:1013B000800310927F03F0E0E0E0199580917F03B5
:1013C00081110FC081E080937F0310925F0309C0F9
:1013D000803C09F4A8CF883C09F4A5CF883B09F0EC
:1013E0007DCFE091800381E08E0F80938003F0E059
:1013F000E15AFC4F80818093BB00909180038091E3
:101400007F0329C08091C8038093BB0085EC809343
:10141000BC0064CF9091C7038091C603981758F51C
:10142000E091C70381E08E0F8093C703F0E0EA5597
:10143000FC4F8081E9CFE091C70381E08E0F80935C
:10144000C7038091BB00F0E0EA55FC4F8083909188
:10145000C7038091C6039817C8F285E8D8CFE091FA
:10146000C70381E08E0F8093C7038091BB00F0E03B
:10147000EA55FC4F80838091A50381115ECF81E006
:101480008093A40384EA8093BC001092A30326CF28
:1014900085EC8093BC001092A3038091A10380325D
:1014A00030F4E091A103F0E0EF57FC4F108260911F
:1014B000A10370E081E893E0F0E0E0E0199510927C
:1014C000A1030CCF1092A20338CFCF93DF931092D9
:1014D000DB031092DA0388EE93E0A0E0B0E08093A3
:1014E000DC039093DD03A093DE03B093DF038BE373
:1014F00092E09093D9038093D80385EC90E0909389
:10150000E5038093E40384EC90E09093E7038093F9
:10151000E60380EC90E09093E9038093E80381EC8C
:1015200090E09093EB038093EA0382EC90E0909339
:10153000ED038093EC0386EC90E09093EF038093AF
:10154000EE031092F1031092F2031092F303109243
:10155000F40310928F04109293041092920410924C
:10156000940489E592E090938E0480938D04E9EAD7
:10157000F4E085EE94E01082148213821582369690
:101580008E179F07C1F789E192E09093F004809352
:10159000EF0486E192E09093F2048093F10484E0FA
:1015A0008093F30483E08093F4048DE192E09093C0
:1015B000EE048093ED048AE090E09093F60480932B
:1015C000F50484EF91E09093F8048093F70410926F
:1015D000FB041092FA041092E9041092EA041092AB
:1015E000EB041092EC041092F9041092780410921B
:1015F00077048DE492E0909376048093750486E1FD
:10160000809379048FEF80937A0487E180937B0441
:1016100088E180937C0489E180937D048AE1809352
:101620007E048BE180937F041092800410928104E9
:1016300010928204109283041092840481E08093BB
:1016400088041092890480E480938A0480E1809366
:101650008B0480E580938C0461E086E10E94900316
:1016600080917A048F3F19F061E00E94900361E05D
:1016700080917B040E949003C5E7D4E09E0125572A
:1016800034408091840484FD0BC084E090E0219676
:101690002817390744F461E08E810E949003EECF51
:1016A00088E090E0F4CF8BE39DE00197F1F760E0F4
:1016B000809179040E945E0360E080917B040E9427
:1016C0005E0380917A048F3F19F060E00E945E0310
:1016D0008091840484FD39C063E085E794E00E9432
:1016E000F606CBE4D6E4CE010197F1F763E085E797
:1016F00094E00E94F6062197F1F763E085E794E015
:101700000E94F60683E592E00197F1F762E085E733
:1017100094E00E94F6068091840480620E9476071D
:1017200084E0809385048CE00E94760781E00E942B
:1017300076078BE39FE10197F1F782E080938604BF
:1017400086E0DF91CF910C94760780620E94760745
:101750008BE496E40197F1F78091840480620E9403
:10176000760783E592E00197F1F780918404806227
:101770000E947607D0CFCF93DF93CDB7DEB76597C2
:101780000FB6F894DEBF0FBECDBF789484B58260EB
:1017900084BD84B5816084BD85B5826085BD85B515
:1017A000816085BD80916E00816080936E00109293
:1017B000810080918100826080938100809181000E
:1017C000816080938100809180008160809380009F
:1017D0008091B10084608093B1008091B0008160FD
:1017E0008093B000809191008260809391008091FD
:1017F000910081608093910080919000816080933E
:1018000090008091A10082608093A1008091A1004E
:1018100081608093A1008091A00081608093A000EE
:10182000809121018260809321018091210181605A
:10183000809321018091200181608093200180911B
:101840007A00846080937A0080917A00826080932D
:101850007A0080917A00816080937A0080917A008A
:10186000806880937A001092C100E091E803F091C3
:10187000E90382E08083E091E403F091E5031082C4
:10188000E091E603F091E7038FEC80831092F00380
:10189000E091EC03F091ED0386E08083E091EA03B0
:1018A000F091EB03808180618083E091EA03F09105
:1018B000EB03808188608083E091EA03F091EB0381
:1018C000808180688083E091EA03F091EB0380815E
:1018D0008F7D80830FE212E0F801D0800E5F1F4FF2
:1018E00061E08D2D0E94900360E08D2D0E945E03CB
:1018F000F2E007331F0781F71092D7031092D60347
:101900008E010F5F1F4F69E0D62E8091D603909114
:10191000D703892B09F0B5C163EB72E0C8010E94BF
:10192000A70661E0C8010E947C07C8010E94D80692
:101930006AE070E080E090E00E94F5030E94C1043C
:1019400018160CF052C0F8012D2D11922A95E9F7C6
:101950006CEC72E0CE010A960E94A70661E0CE010F
:101960000A960E947C07CE010A960E94D806B12CE6
:10197000A12C0E94C1048823E1F38A32C9F568EDE5
:1019800072E0CE010A960E94A70661E0CE010A9697
:101990000E947C07CE010A960E94D80664E670E099
:1019A00080E090E00E94F50368E872E0CE010A96BC
:1019B0000E94A70661E0CE010A960E947C07CE0134
:1019C0000A960E94D806FFEFEF16FF0671F00E94FC
:1019D00027046093D2037093D3038093D40390932E
:1019E000D5030E94A007F12CE12C0E949A028DCF12
:1019F000833209F07DC06AEE72E0CE010A960E9441
:101A0000A70661E0CE010A960E947C07CE010A96E5
:101A10000E94D80664E670E080E090E00E94F50342
:101A200068E872E0CE010A960E94A70661E0CE0146
:101A30000A960E947C07CE010A960E94D80664E6A8
:101A400070E080E090E00E94F5036CEC72E0CE0163
:101A50000A960E94A70661E0CE010A960E947C07C2
:101A6000CE010A960E94D806AA24AA94BA2C8FEF17
:101A7000A81AB80AE8E0AE16B10409F07ACF45E03A
:101A800050E068EF72E088ED93E00E94970188EDE6
:101A900093E00E947A026AE070E080E090E00E94A9
:101AA000F503F80101900020E9F73197AF01401BE1
:101AB000510BB80188ED93E00E94970188ED93E007
:101AC0000E947A0288ED93E00E94F501892BA9F427
:101AD0006EEF72E0CE010A960E94A70660E0CE018A
:101AE0000A960E947C07CE010A960E94D806EACF89
:101AF000F801EA0DFB1D8083BACF68E872E0CE01E1
:101B000040960E94A7060E94330497FD1CC08A8756
:101B10001B86EC88FD88FFEFEF1AFF0AB701CE01A4
:101B200040960E946D06882371F3288939898C8933
:101B30009D89BE01665F7F4F820F931F0E94C81070
:101B4000FD8AEC8AE0CF68E872E0CE010A960E9436
:101B5000A706AC88BD88A114B10459F125E1A216ED
:101B6000B10418F045E1A42EB12CE889F989EA0DF9
:101B7000FB1DC0801082888899888114910479F0B7
:101B8000F40101900020E9F731977F01E818F90886
:101B9000B701CE010A960E946D06811116C0CE01D2
:101BA0000A960E94950688899989A80EB91EF501A2
:101BB000C0828E859F85892B81F4FF24F3948091C8
:101BC00000028823A1F0F12C12C0FF86EE86B4013A
:101BD0008A859B850E94C810E6CF60E072E08A8506
:101BE0009B850E94BF10FF24F394892B61F7CE01DF
:101BF0000A960E94D806F11041C06AE073E0CE0157
:101C00000A960E94A70661E0CE010A960E947C0710
:101C1000CE010A960E94D80664E670E080E090E06B
:101C20000E94F50367E173E0CE010A960E94A706C1
:101C300061E0CE010A960E947C07CE010A960E94BE
:101C4000D80664E670E080E090E00E94F50368E862
:101C500072E0CE010A960E94A70661E0CE010A96C4
:101C60000E947C07CE010A960E94D8060E945D065B
:101C7000EE24EA94FE2CCE014096A3CEF12CE12C6A
:101C8000FACF88ED93E00E94F501892B19F00E94AC
:101C90005D06ABCE0E9427048090D2039090D303C0
:101CA000A090D403B090D503681979098A099B09DB
:101CB000693873418105910550F70E94C104833250
:101CC00019F40E94A00791CE0E94C1048A3209F043
:101CD0008CCE8091D6039091D703181619062CF557
:101CE0006EE273E0C8010E94A70661E0C8010E948D
:101CF0007C07C8010E94D80664E670E080E090E0AE
:101D00000E94F5038091D6039091D7030197909399
:101D1000D7038093D603880F991FFC01E15DFD4F27
:101D200060E080810E945E0360CE61E473E0C801E0
:101D30000E94A70661E0C8010E947C07C8010E94BA
:101D4000D80664E670E080E090E00E94F5034DCE96
:101D5000EE0FFF1F881F8BBF0790F691E02D19949F
:101D60000F931F93CF93DF938230910510F482E09D
:101D700090E0E091FE04F091FF0430E020E0B0E05C
:101D8000A0E0309799F42115310509F44AC0281BC9
:101D9000390B24303105D8F58A819B816115710595
:101DA00089F1FB0193838283FE0111C0408151813F
:101DB0000281138148175907E0F04817590799F431
:101DC000109761F012960C93129713961C9332960B
:101DD000CF01DF91CF911F910F9108950093FE04E1
:101DE0001093FF04F4CF2115310551F0421753072A
:101DF00038F0A901DB019A01BD01DF01F801C1CF73
:101E0000EF01F9CF9093FF048093FE04CDCFFE0144
:101E1000E20FF31F81939193225031093983288374
:101E2000D7CF2091FC043091FD04232B41F4209165
:101E30002B0230912C023093FD042093FC0420915E
:101E4000290230912A022115310541F42DB73EB700
:101E500040912D0250912E02241B350BE091FC0481
:101E6000F091FD04E217F307A0F42E1B3F0B281797
:101E7000390778F0AC014E5F5F4F2417350748F003
:101E80004E0F5F1F5093FD044093FC048193919388
:101E90009FCFF0E0E0E09CCFCF93DF930097E9F095
:101EA000FC01329713821282A091FE04B091FF04CC
:101EB000ED0130E020E01097A1F420813181820F04
:101EC000931F2091FC043091FD042817390709F075
:101ED00061C0F093FD04E093FC04DF91CF9108957D
:101EE000EA01CE17DF07E8F54A815B819E014115C3
:101EF0005105B1F7E901FB83EA8349915991C40F78
:101F0000D51FEC17FD0761F4808191810296840F43
:101F1000951FE90199838883828193819B838A83BA
:101F2000F0E0E0E012968D919C9113970097B9F53F
:101F30002D913C911197CD010296820F931F209114
:101F4000FC043091FD042817390739F6309751F514
:101F50001092FF041092FE04B093FD04A093FC04C1
:101F6000BCCFD383C28340815181840F951FC81792
:101F7000D90761F44E5F5F4F88819981480F591FDF
:101F8000518340838A819B8193838283211531050C
:101F900009F0B0CFF093FF04E093FE049ECFFD0163
:101FA000DC01C0CF13821282D7CF4F925F926F9223
:101FB0007F928F929F92AF92BF92CF92DF92EF92D9
:101FC000FF920F931F93CF93DF938C01009799F4A7
:101FD000CB01DF91CF911F910F91FF90EF90DF9098
:101FE000CF90BF90AF909F908F907F906F905F90B9
:101FF0004F900C94B00EFC01E60FF71F9C0122508D
:102000003109E217F30708F4AEC0D901CD91DC9194
:102010001197C617D70720F1C530D10578F0CE014A
:1020200004978617970750F0C61BD70B2297C193CA
:10203000D1936D937C93CF010E944C0FC801DF9127
:10204000CF911F910F91FF90EF90DF90CF90BF90B5
:10205000AF909F908F907F906F905F904F9008957A
:102060005B01AC1ABD0A4C018C0E9D1EA091FE04B2
:10207000B091FF04512C412CF12CE12C109731F53B
:102080008091FC049091FD048815990509F05CC0CD
:102090004616570608F058C08091290290912A02EE
:1020A000009741F48DB79EB740912D0250912E02BA
:1020B000841B950BE817F90708F055C0F093FD0451
:1020C000E093FC04F90171836083B8CF8D919C91FA
:1020D000119712966C90129713967C901397A815EF
:1020E000B90559F56C0142E0C40ED11CCA14DB04D9
:1020F00020F1AC014A195B09DA011296159780F0BC
:102100006282738251834083D9016D937C93E11481
:10211000F10471F0D7011396FC93EE9312978ECFD2
:1021200022968C0F9D1FF90191838083F301EFCFDD
:10213000F093FF04E093FE0481CF4816590608F49B
:102140002C017D01D3019ACFCB010E94B00E7C01FE
:10215000009749F0AE01B8010E94B610C8010E9474
:102160004C0F87016BCF10E000E068CFFB01DC0172
:1021700002C001900D9241505040D8F70895FB01E4
:10218000DC018D91019080190110D9F3990B08950C
:10219000FB01DC0101900D920020E1F70895F89415
:0221A000FFCF6F
:1021A20071776572747975696F7071776572747918
:1021B20075696F7000001C1D1E1F202122313233F1
:1021C2003435363738392A302300000005800023A1
:1021D20000240025000000000000002D029701C429
:1021E200017A02F501D301E70100000000200897FF
:1021F200015A06080600000000CC038C035B037939
:102202006F7520617265206E6F77206C6F676765EE
:102212006420696E006F74686572207573657273ED
:102222002063616E202E2E2E007072657373202340
:1022320020746F20656E746572006D6178696D75CA
:102242006D20757365727320617265207365727695
:10225200656400707265737320616E79206B6579B5
:1022620020746F2073746172742E2E00656E746513
:102272007220706173733A0075736572206C6F67B8
:10228200696E20657869742E2E00696E70757420EF
:1022920072657365742E2E00617574683B00706CF4
:1022A2006561736520776169740077726F6E67206C
:1022B200706173732E2E00616C6C2075736572737E
:1022C200206D7573742072652D61757468006F6E70
:1022D20065206973206C6F6767696E67206F75741C
:1022E200006E6F207573657273206973206C6F675F
:0822F20067656420696E0000BD
:00000001FF
