:100000000C9451010C9482010C9482010C94820195
:100010000C9482010C9482010C9482010C94820154
:100020000C9482010C9482010C9482010C94820144
:100030000C9482010C9482010C9482010C94820134
:100040000C9482010C9482010C9482010C94820124
:100050000C9482010C9482010C9482010C94C90BC3
:100060000C9482010C949F0B0C94750B0C948201E0
:100070000C9482010C9482010C9482010C948201F4
:100080000C9482010C9482010C9482010C948201E4
:100090000C944B0B0C94210B0C9482010C94130CBC
:1000A0000C9482010C9482010C9482010C948201C4
:1000B0000C9482010C9482010C9482010C948201B4
:1000C0000C9482010C9482010C9482010C94F70A26
:1000D0000C94CD0A0C9482010C9482010C94820140
:1000E0000C9482010C9451030C94AC070C9466039D
:1000F0000C94CF010C9474030C9447030C94BC072C
:100100000C9470030C94B9030C945E060C94550384
:100110000C942A040C94CF070C94AD070C944D0357
:100120000C94370D0C9437080C9487030C94CE0173
:100130000C946C030C9493020C9439020C947A0383
:100140000C9459030C9482030C945C030C948C0360
:100150000C9425020C94EA030C9462030C9447025D
:100160000C947E030C9403080C9416020C94300932
:100170000C94E0020C94D0010C9488030C94D607E4
:1001800000002100240027002A002D003000330049
:1001900001010000040107010A01000022002500FE
:1001A00028002B002E003100340002010000050160
:1001B00008010B01000020002300260029002C006C
:1001C0002F003200000100000301060109010505AE
:1001D0000505070508080808020202020A0A0808BD
:1001E00004040404010101010101010103030303EB
:1001F00003030303040707070C0C0C0C0C0C0C0C7A
:100200000202020206060606060606060B0B0B0B8A
:100210000B0B0B0B010210202008081020401020AF
:1002200040800201020108040201010204081020BA
:1002300040808040201008040201800402018040B8
:100240002010080402010804020101020408102021
:100250004080010204081020408000000A0B0209BF
:100260000C0D0E0807030401000000000000000050
:10027000000000000000000000000000000000007E
:10028000000000000000121110000000000000003B
:10029000000000000000000000000000000000005E
:1002A000370D11241FBECFEFD1E2DEBFCDBF00E07E
:1002B0000CBF26E0AEE1B3E001C01D92A337B20748
:1002C000E1F713E0A0E0B2E0E8EFFAE200E00BBFF4
:1002D00002C007900D92AE31B107D9F711E0C1E528
:1002E000D1E000E006C021970109802FFE010E94A5
:1002F0004413C035D10780E00807A9F70E94170F03
:100300000C947A150C940000FC01A089B18982E05C
:100310008C93A485B5851C92A685B7858FEC8C93AC
:10032000108EA489B58986E08C93A289B3898C91BB
:1003300080618C93A289B3898C9188608C93A28907
:10034000B3898C9180688C930288F389E02D808139
:100350008F7D8083089596E0899FD0011124A0505D
:10036000BA4F90967C936E935F9791E091969C9391
:100370009197E0916D06F0916E0690916C0699232D
:1003800039F0309751F0811108C080911C06199402
:10039000309719F05C968C91FACF089508950895DE
:1003A000AF92BF92CF92DF92EF92FF920F931F9383
:1003B000CF93DF936C017B018B01040F151FEB01C1
:1003C0005E01AE18BF08C017D10759F06991D60178
:1003D000ED91FC910190F081E02DC6011995892BDA
:1003E00079F7C501DF91CF911F910F91FF90EF90A9
:1003F000DF90CF90BF90AF900895FC01A089B189A4
:100400008C91A689B78982FD0FC09C91818D8F5FE9
:100410008F73228D821749F0A18DAE0FBF2FB11DB2
:100420005D969C93818F08958C910895FC01538D66
:10043000448D252F30E0842F90E0821B930B5417BE
:1004400010F0CF96089501970895FC01918D828D4B
:10045000981761F0A28DAE0FBF2FB11D5D968C91E4
:10046000928D9F5F9F73928F90E008958FEF9FEF23
:100470000895FC01918D828D981731F0828DE80FDF
:10048000F11D858D90E008958FEF9FEF0895FC0199
:10049000918D228D892F90E0805C9F4F821B910966
:1004A0008F739927089585E094E00E94470221E028
:1004B000892B09F420E0822F089582EA94E00E94BB
:1004C000470221E0892B09F420E0822F08958FE371
:1004D00095E00E94470221E0892B09F420E0822F59
:1004E0000895FC01A48DA80FB92FB11DA35ABF4FC9
:1004F0002C91848D90E001968F739927848FA68923
:10050000B7892C93A089B1898C91837080648C9376
:10051000938D848D981306C00288F389E02D808125
:100520008F7D80830895EF92FF920F931F93CF9357
:10053000DF93EC0181E0888F9B8D8C8D98131AC01E
:10054000E889F989808185FF15C09FB7F894EE8905
:10055000FF896083E889F989808183708064808362
:100560009FBF81E090E0DF91CF911F910F91FF90AD
:10057000EF900895F62E0B8D10E00F5F1F4F0F7355
:100580001127E02E8C8D8E110CC00FB607FCFACF10
:10059000E889F989808185FFF5CFCE010E9471023B
:1005A000F1CFEB8DEC0FFD2FF11DE35AFF4FF082E1
:1005B0009FB7F8940B8FEA89FB8980818062CFCF47
:1005C000CF93DF93EC01888D8823B9F0AA89BB898A
:1005D000E889F9898C9185FD03C0808186FD0DC075
:1005E0000FB607FCF7CF8C9185FFF2CF808185FF96
:1005F000EDCFCE010E947102E9CFDF91CF91089536
:1006000080E090E0892B29F00E94670281110E940E
:10061000000080E090E0892B29F00E945D028111AA
:100620000E94000080E090E0892B29F00E94530294
:1006300081110E94000080E090E0892B49F080E069
:1006400090E0892B29F00E94000081110C94000099
:1006500008958150823108F05AC0E82FF0E08827D1
:10066000EB5CFC4F8F4F0C94441355035903470325
:100670004D03510387035C03620366036C0370033D
:1006800074037A037E038703820388038C038091BB
:1006900080008F77809380000895809180008F7D07
:1006A000F9CF80918000877FF5CF84B58F7784BDA7
:1006B000089584B58F7DFBCF8091B0008F778093B4
:1006C000B00008958091B0008F7DF9CF80919000A7
:1006D0008F77809390000895809190008F7DF9CF5F
:1006E00080919000877FF5CF8091A0008F778093D5
:1006F000A00008958091A0008F7DF9CF8091A00087
:10070000877FF5CF809120018F7780932001089516
:10071000809120018F7DF9CF80912001877FF5CFD7
:10072000CF93DF93282F30E0F901E65AFD4F8491F3
:10073000F901EC5EFD4FD491F901E253FE4FC491F3
:10074000CC23A1F081110E942903EC2FF0E0EE0FE1
:10075000FF1FEC54FE4FA591B491EC91ED2381E085
:1007600090E009F480E0DF91CF91089580E090E07F
:10077000FACF862F0C9490031F93CF93DF93282FEB
:1007800030E0F901E65AFD4F8491F901EC5EFD4F2E
:10079000D491F901E253FE4FC491CC23A9F0162F56
:1007A00081110E942903EC2FF0E0EE0FFF1FE656A7
:1007B000FE4FA591B4918FB7F894EC91111108C038
:1007C000D095DE23DC938FBFDF91CF911F910895E9
:1007D000DE2BF8CF862F642F0C94BC03CF93DF93CE
:1007E00090E0FC01EC5EFD4F249182539E4FFC0192
:1007F00084918823C9F090E0880F991FFC01E0588C
:10080000FE4FA591B491FC01E656FE4FC591D491DF
:1008100061110DC09FB7F8948C91209582238C9321
:100820008881282328839FBFDF91CF91089562306C
:1008300051F49FB7F8943C91822F809583238C9339
:10084000E8812E2BEFCF8FB7F894EC912E2B2C93C1
:100850008FBFEACF862F642F0C94EE033FB7F89436
:100860008091670390916803A0916903B0916A0336
:1008700026B5A89B05C02F3F19F00196A11DB11DFB
:100880003FBFBA2FA92F982F8827BC01CD01620F37
:10089000711D811D911D42E0660F771F881F991FF2
:1008A0004A95D1F708958F929F92AF92BF92CF92BF
:1008B000DF92EF92FF924B015C010E942E046B01CC
:1008C0007C010E942E046C197D098E099F09683EE7
:1008D000734081059105A8F321E0821A9108A108CF
:1008E000B10888EEC80E83E0D81EE11CF11C81140B
:1008F0009104A104B10429F7FF90EF90DF90CF900D
:10090000BF90AF909F908F9008952FB7F89460910B
:1009100063037091640380916503909166032FBF18
:1009200008950F931F93CF93DF93C82FD62F86E0A0
:10093000C89FF0011124E050FA4F11A2878D90A1B9
:1009400081309105F1F058F082309105F1F1039773
:1009500009F440C0DF91CF911F910F910895662354
:10096000C9F361E070E08C2F0E94AB010E94850406
:10097000609358067093590680935A0690935B06CD
:10098000E9CF0E94850400915806109159062091E4
:100990005A0630915B06AB01BC01401B510B620B48
:1009A000730B80916A0690916B06B0E0A0E084170B
:1009B0009507A607B70748F462E070E08C2FDF9137
:1009C000CF911F910F910C94AB0163E070E0D111B6
:1009D000C1CFF4CF70E060E0F1CF6F927F928F9241
:1009E0009F92AF92BF92CF92DF92EF92FF920F93BE
:1009F0001F93CF93DF9381E080936C060E94850460
:100A000000915C0610915D0620915E0630915F06B4
:100A1000AB01BC01401B510B620B730B809168064C
:100A200090916906B0E0A0E084179507A607B70784
:100A300008F014C1C0E080916606C81760F4E09128
:100A40006206F0916306EC0FF11D62E080810E9466
:100A5000EE03CF5FF0CF712C812C912C5401839445
:100A600080916706781608F05FC0072D10E0E091CE
:100A70006406F0916506E00FF11F61E080810E943D
:100A8000EE03E0916406F0916506E00FF11F60E06F
:100A900080810E94BC03D501C401072C04C0880FCB
:100AA000991FAA1FBB1F0A94D2F76C017C01E09426
:100AB000F094612C809166066816F8F4C62DD0E09B
:100AC000E0916206F0916306EC0FFD1F80810E94A9
:100AD00090032496CC0FDD1FC050DA4F892B41F4D0
:100AE000888199818C299D29998388836394E2CF99
:100AF000888199818E219F21F7CFE0916406F09142
:100B00006506E00FF11F61E080810E94BC038091C7
:100B1000640690916506080F191F60E0F801808156
:100B20000E94EE0373949CCFC0E0D6E0FE018FEFED
:100B30009FEF278D30A1232B21F4148E968F858F64
:100B400011A2369626E0EC33F20799F7F12C96E0E5
:100B5000D92E80916606F81608F050C0E12C0F2DB2
:100B600010E0000F111F085F194F20916706E21671
:100B700008F042C0F801608171810E2C02C07695A8
:100B800067950A94E2F7F29E900111242E0D311D13
:100B9000E0E0F6E080E0458D568D2417350709F436
:100BA00061C08F5F36968A30B1F760FF23C0E0E006
:100BB000F6E090E080E0448D411117C0E0916006BE
:100BC000F0916106E20FF31F4081D89EF001D99E9B
:100BD000F00D1124E050FA4F448F368F258F10A26C
:100BE000178E61E00E94910405C0019636968A3006
:100BF000910509F7E394B9CFF394ABCF10E089A145
:100C00008111182F2696F6E0CC33DF07C1F70E943A
:100C1000850460935C0670935D0680935E069093F6
:100C20005F061123D9F0809121068823B9F08091C5
:100C30001F0690912006019789F480911C06DF9190
:100C4000CF911F910F91FF90EF90DF90CF90BF90C9
:100C5000AF909F908F907F906F90089510926C0648
:100C600080E0EDCF6170BECF0F931F93CF93DF93E2
:100C7000EC010E948504688779878A879B87CE016B
:100C80000E94250297FF15C00E94850408851985DA
:100C90002A853B85601B710B820B930B0C811D8198
:100CA0002E813F81601771078207930740F38FEF12
:100CB0009FEFDF91CF911F910F910895089520919B
:100CC0003F03260F3327331F21323105ECF42091E7
:100CD000DB03FC0190E080E0243069F082E00895BD
:100CE000A0913F032191AC01415E5C4FA40FB52F51
:100CF000B11D2C930196861798F380913F03680FDE
:100D000060933F0380E0089581E008951092DB0333
:100D100081E08093DA031092B50361E084E10E94E0
:100D2000BC0361E085E10E94BC03E9EBF0E0808157
:100D30008E7F808380818D7F808388E48093B8005C
:100D400085E48093BC000895CF93DF9391E0909366
:100D50001E038823B9F0C091B800D091BA008091E9
:100D6000BC008A7B8093BC0060E084E10E94BC03ED
:100D700060E085E10E94BC030E948606D093BA0021
:100D8000C093B800DF91CF910895CF92DF92EF9298
:100D9000FF920F931F93CF93DF93D091040481E0D0
:100DA000D13208F09CC0C09103040E942E046B0154
:100DB0007C018091DB0381116CC082E08093DB03B6
:100DC00081E08093DA038FEF8093D9031092D803E8
:100DD000D093D703A3EEB3E0E7EBF3E080E0D813C2
:100DE0008DC01092B6038091B603CC0FC82BC09370
:100DF000B6038091B503813009F084C01092B50329
:100E00000E942E046B017C018091B6038093BB008D
:100E10008091DD039091DE03A091DF03B091E003A8
:100E2000892B8A2B8B2BA1F00E942E040091DD03CD
:100E30001091DE032091DF033091E0036C197D09EE
:100E40008E099F09061717072807390708F442C0BB
:100E50008091BC0083FDD8CF85EC8093BC000E94BC
:100E60002E046B017C018091DB03823009F44CC0BD
:100E70008091D9038F3F09F469C08091D9038032F2
:100E800009F466C08091D903803309F463C084E01B
:100E900026C08091DD039091DE03A091DF03B09125
:100EA000E003892B8A2B8B2B09F483CF0E942E041D
:100EB0000091DD031091DE032091DF033091E00308
:100EC0006C197D098E099F0906171707280739072E
:100ED00008F06FCF8091DC030E94A40685E0109299
:100EE000E203109204041092E103DF91CF911F916D
:100EF0000F91FF90EF90DF90CF9008959D91919387
:100F00008F5F6DCF85EEA9CF8091DD039091DE03D9
:100F1000A091DF03B091E003892B8A2B8B2B09F47E
:100F2000A2CF0E942E040091DD031091DE032091D8
:100F3000DF033091E0036C197D098E099F090617C4
:100F400017072807390708F08ECFC4CF80E0C7CF36
:100F500082E0C5CF83E0C3CF0895E0917003809114
:100F60006F03E81730F4F0E0EF58FC4F808190E019
:100F700008958FEF9FEF08959091700380916F0314
:100F80002FEF3FEF981748F4E92FF0E0EF58FC4FB0
:100F9000208130E09F5F90937003C9010895809194
:100FA0006F0390917003891B990B0895CF92DF9284
:100FB000EF92FF920F931F93CF93DF937C01CB01AE
:100FC0008A012091E103222389F0EB016B01C40E19
:100FD000D51ECC15DD0569F06991D701ED91FC9125
:100FE0000190F081E02DC7011995F3CF642F0E9485
:100FF0005F06C801DF91CF911F910F91FF90EF9095
:10100000DF90CF900895CF93DF931F92CDB7DEB7D7
:1010100069832091E1032223F9F020910404203216
:1010200058F021E030E0FC013383228390E080E03F
:101030000F90DF91CF9108958091E203E82FF0E0C7
:10104000ED51FC4F998190838F5F8093E2038093F1
:10105000040481E090E0ECCF61E0CE0101960E94B3
:101060005F06F7CF60E08CED95E00C94030890E00C
:1010700080E008950F931F93CF93DF93FC010481C9
:1010800015810115110539F4FB011082DF91CF9113
:101090001F910F9108950830110510F008E010E03D
:1010A000EB01FC0160817181A801CE010E946B15EA
:1010B000C00FD11F1882EACFFC0124813581232B78
:1010C00049F069E672E0808191810E945B1521E020
:1010D000892B09F020E0822F0895CF93DF93EC0154
:1010E00060E08E810E94BC0361E08E810E94BC039F
:1010F00060E08E810E94BC038BE891E00197F1F7DC
:10110000DF91CF910895CF92DF92EF92FF920F93EC
:101110001F93CF93DF936C017C0187E0E80EF11CF5
:10112000D0E0C0E0062F10E0B8010C2E02C075958B
:1011300067950A94E2F76170F70181917F010E943F
:10114000BC032196C430D10579F7C601DF91CF9158
:101150001F910F91FF90EF90DF90CF900C946D084E
:10116000CF92DF92EF92FF920F931F93CF93DF9373
:10117000EC01F62E642F8C810E94BC038D818F3F81
:1011800019F060E00E94BC030F2D10E08F8584FFF2
:1011900025C06E0187E0C80ED11CF12CE12CB801EE
:1011A0000E2C02C0759567950A94E2F76170F601FE
:1011B00081916F010E94BC03FFEFEF1AFF0A88E0E4
:1011C000E816F10461F7CE01DF91CF911F910F91E5
:1011D000FF90EF90DF90CF900C946D08B80184E001
:1011E000759567958A95E1F7CE010E9483086F2D6A
:1011F000CE01DF91CF911F910F91FF90EF90DF9083
:10120000CF900C94830840E0682F88EE95E00C9412
:10121000B0080F931F93CF938C01C62F81E00E94DB
:1012200003098BE39FE10197F1F7E1E0EC0F809177
:10123000FB05E81710F0EFEFE80FF0E0E851FA4F88
:10124000848980680E940309F80144815581608186
:10125000718188EE95E0CF911F910F910C94D00190
:1012600041E00E94B00881E090E00895FB01019008
:101270000020E9F73197AF01461B570B0C94D001C2
:101280000F931F93CF93DF93EC018881998100978F
:1012900059F02A813B812617370730F081E0DF9132
:1012A000CF911F910F9108958B016F5F7F4F0E9427
:1012B0007114009759F0998388831B830A832C81CA
:1012C0003D81232B59F7FC011082E8CF80E0E7CF66
:1012D000CF93DF93EC0188819981009711F00E94F0
:1012E000E813198218821D821C821B821A82DF91E8
:1012F000CF910895EF92FF920F931F93CF93DF93B7
:10130000EC017B01198218821B821A821D821C82C9
:10131000FB0101900020E9F731978F01061B170BA5
:10132000B8010E944009811109C0CE01DF91CF911F
:101330001F910F91FF90EF900C9468091D830C830F
:10134000B70188819981DF91CF911F910F91FF9013
:10135000EF900C9464159F92AF92BF92CF92DF9260
:10136000EF92FF920F931F93CF93DF938C015B015A
:101370007A0169016DE173E00E947A09D501149642
:10138000CD91DC91EC16FD0650F5CC16DD0608F487
:10139000E601D501ED91FC911197EC0FFD1F9080B6
:1013A00010828D919C91E80EF91EE114F10471F008
:1013B000F70101900020E9F731976F01CE18DF089F
:1013C000B601C8010E944009811116C0C8010E94DF
:1013D0006809D5018D919C91C80FD91F9882C801C9
:1013E000DF91CF911F910F91FF90EF90DF90CF9001
:1013F000BF90AF909F900895F801D582C482B70145
:10140000808191810E946415E4CFCF92DF92EF92A8
:10141000FF920F931F93CF93DF931F921F92CDB72D
:10142000DEB78C016B016DE173E00E947A09C601A1
:101430000E94340697FD1EC089831A82F801E48059
:10144000F580FFEFEF1AFF0AB701C8010E944009BB
:10145000882369F3F8012081318184819581BE015F
:101460006F5F7F4F820F931F0E946415F801F58212
:10147000E482DDCFC8010F900F90DF91CF911F91D3
:101480000F91FF90EF90DF90CF900895FC01808145
:101490009181009711F00C94E8130895CF93DF9396
:1014A00000D000D0CDB7DEB76FE672E08FE395E0F5
:1014B0000E9436096FE672E082EA94E00E943609E3
:1014C0006FE672E085E094E00E9436096BE772E017
:1014D000CE0101960E947A0970E060E0CE0101968B
:1014E0000E940909CE0101960E94460A64E670E056
:1014F00080E090E00E9453046DE173E0CE0101961C
:101500000E947A0970E060E0CE0101960E9409090C
:10151000CE0101960E94460A26960FB6F894DEBFC9
:101520000FBECDBFDF91CF91089585ED8093BC00B4
:101530008091DD039091DE03A091DF03B091E00381
:101540000796A11DB11D23E0B695A79597958795A0
:101550002A95D1F72091BC0024FD03C01092DB0333
:1015600008954091DD035091DE036091DF03709197
:10157000E003452B462B472B69F30097A105B105E6
:1015800041F025E32A95F1F700000197A109B1097F
:10159000E1CF8091DC030C94A4061F920F920FB64A
:1015A0000F9211240BB60F922F933F934F935F939B
:1015B0006F937F938F939F93AF93BF93EF93FF931B
:1015C00085E094E00E947102FF91EF91BF91AF918D
:1015D0009F918F917F916F915F914F913F912F914B
:1015E0000F900BBE0F900FBE0F901F9018951F927B
:1015F0000F920FB60F9211240BB60F922F933F93B9
:101600004F935F936F937F938F939F93AF93BF930A
:10161000EF93FF9385E094E00E94FD01FF91EF912D
:10162000BF91AF919F918F917F916F915F914F91FA
:101630003F912F910F900BBE0F900FBE0F901F90F8
:1016400018951F920F920FB60F9211240BB60F929E
:101650002F933F934F935F936F937F938F939F93BA
:10166000AF93BF93EF93FF9382EA94E00E947102DD
:10167000FF91EF91BF91AF919F918F917F916F916A
:101680005F914F913F912F910F900BBE0F900FBE26
:101690000F901F9018951F920F920FB60F92112462
:1016A0000BB60F922F933F934F935F936F937F935C
:1016B0008F939F93AF93BF93EF93FF9382EA94E04E
:1016C0000E94FD01FF91EF91BF91AF919F918F918A
:1016D0007F916F915F914F913F912F910F900BBE32
:1016E0000F900FBE0F901F9018951F920F920FB67C
:1016F0000F9211240BB60F922F933F934F935F934A
:101700006F937F938F939F93AF93BF93EF93FF93C9
:101710008FE395E00E947102FF91EF91BF91AF912D
:101720009F918F917F916F915F914F913F912F91F9
:101730000F900BBE0F900FBE0F901F9018951F9229
:101740000F920FB60F9211240BB60F922F933F9367
:101750004F935F936F937F938F939F93AF93BF93B9
:10176000EF93FF938FE395E00E94FD01FF91EF91CE
:10177000BF91AF919F918F917F916F915F914F91A9
:101780003F912F910F900BBE0F900FBE0F901F90A7
:1017900018951F920F920FB60F9211242F933F931B
:1017A0008F939F93AF93BF93809163039091640352
:1017B000A0916503B09166033091620323E0230F8B
:1017C0002D3758F50196A11DB11D2093620380931A
:1017D000630390936403A0936503B09366038091C1
:1017E000670390916803A0916903B0916A03019621
:1017F000A11DB11D8093670390936803A0936903B3
:10180000B0936A03BF91AF919F918F913F912F91B8
:101810000F900FBE0F901F90189526E8230F029689
:10182000A11DB11DD2CF1F920F920FB60F9211249E
:101830000BB60F922F933F934F935F936F937F93CA
:101840008F939F93AF93BF93EF93FF938091B900D2
:10185000887F803609F44DC008F040C0883209F412
:10186000A9C028F5803109F49DC0C8F4882309F483
:10187000FBC0883009F496C0FF91EF91BF91AF9102
:101880009F918F917F916F915F914F913F912F9198
:101890000F900BBE0F900FBE0F901F9018958831C0
:1018A00009F488C0803241F78093D90314C0803492
:1018B00009F49DC040F48033B9F38833E9F680938E
:1018C000D90385ECB0C0803509F485C0883509F4AA
:1018D00096C0883489F60E94950ACECF883909F4DB
:1018E0008CC038F5883729F050F4883611F08037ED
:1018F00019F683E08093DB031092610357C08838A8
:1019000009F47BC0803919F0803809F0B5CF809197
:101910006103803208F071C0E091610381E08E0FB5
:10192000809361038091BB00F0E0EF5BFC4F80830C
:101930003DC0803B39F0E0F4803A09F479C0883A40
:1019400009F09ACF84E08093DB0310924003109259
:101950003F03E0916D03F0916E03199580913F0371
:1019600081110FC081E080933F0310921F0309C0D3
:10197000803C09F4A6CF883C09F4A3CF883B09F04A
:101980007BCFE091400381E08E0F80934003F0E035
:10199000E15EFC4F80818093BB0090914003809179
:1019A0003F0329C08091B6038093BB0085EC8093F0
:1019B000BC0062CF9091D8038091D703981758F557
:1019C000E091D80381E08E0F8093D803F0E0E954D2
:1019D000FC4F8081E9CFE091D80381E08E0F8093A6
:1019E000D8038091BB00F0E0E954FC4F80839091D4
:1019F000D8038091D7039817C8F285E8D8CFE09133
:101A0000D80381E08E0F8093D8038091BB00F0E073
:101A1000E954FC4F80838091DA0381115CCF81E02F
:101A20008093B50384EA8093BC001092DB0324CF3B
:101A300085EC8093BC001092DB03809161038032BF
:101A400030F4E0916103F0E0EF5BFC4F10826091B5
:101A5000610370E0E0916B03F0916C0381E493E02B
:101A600019951092610308CF1092D90334CFCF9308
:101A7000DF93109208041092070488EE93E0A0E030
:101A8000B0E08093090490930A04A0930B04B093F0
:101A90000C0423E332E0309306042093050445ED63
:101AA00050E0509312044093110444ED50E05093E1
:101AB00014044093130440ED50E0509316044093F7
:101AC000150441ED50E0509318044093170442ED83
:101AD00050E050931A044093190446ED50E050939F
:101AE0001C0440931B0410921E0410921F041092B9
:101AF0002004109221041092A5041092A404809353
:101B0000A6049093A704A093A804B093A9043093CB
:101B1000A3042093A2044DEC50E05093AF044093F3
:101B2000AE044CEC50E05093B1044093B00448EC48
:101B300050E05093B3044093B20449EC50E050930A
:101B4000B5044093B4044AEC50E05093B70440937A
:101B5000B6044EEC50E05093B9044093B804109290
:101B6000BB041092BC041092BD041092BE041092EB
:101B70004205109241058093430590934405A0933C
:101B80004505B09346053093400520933F0525EC6D
:101B900030E030934C0520934B0524EC30E030933B
:101BA0004E0520934D0520EC30E0309350052093F6
:101BB0004F0521EC30E0309352052093510522EC83
:101BC00030E0309354052093530526EC30E03093F9
:101BD00056052093550510925805109259051092FC
:101BE0005A0510925B051092DF051092DE05809376
:101BF000E0059093E105A093E205B093E30585E449
:101C000092E09093DD058093DC051092020610921D
:101C10000606109205061092070683E692E090935E
:101C2000010680930006ECE1F6E088E596E010827C
:101C300014821382158236968E179F07C1F789E1A9
:101C400092E0909363068093620686E192E090931F
:101C500065068093640684E08093660683E0809343
:101C600067068DE192E090936106809360068AE0BA
:101C700090E0909369068093680684EF91E09093DA
:101C80006B0680936A0610926E0610926D06109293
:101C90005C0610925D0610925E0610925F0610922E
:101CA0006C061092EB051092EA0587E592E090939E
:101CB000E9058093E80586E18093EC058FEF80933A
:101CC000ED0587E18093EE0588E18093EF0589E1DA
:101CD0008093F0058AE18093F1058BE18093F20512
:101CE0001092F3051092F4051092F5051092F60586
:101CF0001092F70581E08093FB051092FC0580E4CB
:101D00008093FD0580E18093FE0580E58093FF05CB
:101D100061E086E10E94EE038091ED058F3F19F0AE
:101D200061E00E94EE0361E08091EE050E94EE0307
:101D3000C8EED5E09E01285E35408091F70584FD10
:101D40000BC084E090E021962817390744F461E045
:101D50008E810E94EE03EECF88E090E0F4CF8BE31B
:101D60009DE00197F1F760E08091EC050E94BC03D3
:101D700060E08091EE050E94BC038091ED058F3FED
:101D800019F060E00E94BC038091F70584FD39C022
:101D900063E088EE95E00E948308CBE4D6E4CE01B0
:101DA0000197F1F763E088EE95E00E9483082197A0
:101DB000F1F763E088EE95E00E94830883E592E006
:101DC0000197F1F762E088EE95E00E948308809128
:101DD000F70580620E94030984E08093F8058CE097
:101DE0000E94030981E00E9403098BE39FE10197B0
:101DF000F1F782E08093F90586E0DF91CF910C94B2
:101E0000030980620E9403098BE496E40197F1F7CD
:101E10008091F70580620E94030983E592E00197B3
:101E2000F1F78091F70580620E940309D0CFCF932C
:101E3000DF93CDB7DEB768970FB6F894DEBF0FBE5D
:101E4000CDBF789484B5826084BD84B5816084BD43
:101E500085B5826085BD85B5816085BD80916E0048
:101E6000816080936E001092810080918100826079
:101E700080938100809181008160809381008091B6
:101E800080008160809380008091B10084608093A5
:101E9000B1008091B00081608093B000809191008A
:101EA0008260809391008091910081608093910085
:101EB000809190008160809390008091A100826069
:101EC0008093A1008091A10081608093A100809106
:101ED000A00081608093A0008091210182608093A6
:101EE0002101809121018160809321018091200155
:101EF00081608093200180917A00846080937A00D1
:101F000080917A00826080937A0080917A0081606B
:101F100080937A0080917A00806880937A00109292
:101F2000C1008FE395E00E94840182EA94E00E9460
:101F3000840185E094E00E94840110927003109265
:101F40006F031092E203109204040E9486068EEC46
:101F500091E090936E0380936D038FEC91E09093EA
:101F60006C0380936B03E1E9F3E089E0DF011D92EC
:101F70008A95E9F7EAE9F3E08BE1DF011D928A95A2
:101F8000E9F781E08093E10380E5809303040E94F8
:101F900032080E9432080E94C5060E942E046B017E
:101FA0007C018091DB03811165C081E08093DB03BC
:101FB0008093DA039FEF9093D9031092D8039FE1A7
:101FC0009093D7038093B6038091B603806A809381
:101FD000B6038091B503813009F00CC11092B503AE
:101FE0000E942E046B017C018091B6038093BB009C
:101FF0008091DD039091DE03A091DF03B091E003B7
:10200000892B8A2B8B2BA1F00E942E040091DD03DB
:102010001091DE032091DF033091E0036C197D09FC
:102020008E099F09061717072807390708F443C0C8
:102030008091BC0083FDD8CF85EC8093BC000E94CA
:102040002E046B017C018091DB03813009F4D4C044
:102050008091D803803208F0F1C08091D803A7EBBB
:10206000B3E0E1E7F3E090E0981751F12D9121936F
:102070009F5FFACF8091DD039091DE03A091DF0393
:10208000B091E003892B8A2B8B2B09F48ACF0E9415
:102090002E040091DD031091DE032091DF033091C7
:1020A000E0036C197D098E099F0906171707280799
:1020B000390708F076CF8091DC030E94A40680E007
:1020C0001092700380936F03E1E96E2EE3E07E2EA1
:1020D0008CED95E00E94BC07805DF30181933F0188
:1020E000F9E96F16F3E07F0699F710929A0365EB12
:1020F000E62E63E0F62E7AE9C72E73E0D72E10E0C5
:1021000000E08CED95E00E94BC07F601E00FF11FA6
:10211000805D80830F5F1F4F0830110591F7D60156
:1021200019961C92B9E0CB0ED11CEC14FD0439F7C2
:1021300049E0542E7E01EAE0EE0EF11C8E010F5FA5
:102140001F4F3324339450E5452E0E94ED0418169A
:102150002CF48A3209F074C00E944E0A8FE395E095
:102160000E944702181619060CF003C26FE375E0CF
:10217000CE0143960E94050A25E030E050E040E0A1
:10218000BE016D5E7F4FC8010E94AB09C8010E946D
:102190005C08B82EC8010E94460ABB2021F1D80174
:1021A000E52D1D92EA95E9F72DE030E045E050E09D
:1021B000BE016D5E7F4FC7010E94AB09B801C70128
:1021C0000E943A08C7010E94460A6AE973E0C80102
:1021D0000E945B15892B09F054C260E072E08FE326
:1021E00095E00E943609CE0143960E94460A0E945D
:1021F0000003ABCF85EE21CF8091DD039091DE030C
:10220000A091DF03B091E003892B8A2B8B2B09F47B
:102210001ACF0E942E040091DD031091DE0320915D
:10222000DF033091E0036C197D098E099F090617C1
:1022300017072807390708F006CF3DCF80E20FCFF8
:10224000D701E52D1D92EA95E9F766E872E0C8012D
:102250000E947A0961E070E0C8010E940909C80182
:102260000E94460AB12CA12C0E94ED048823E1F3C0
:102270008A32F9F467E972E0C8010E947A0961E0E4
:1022800070E0C8010E940909C8010E94460A64E67C
:1022900070E080E090E00E9453046DE173E0C801BB
:1022A0000E947A0961E070E0C8010E940909C80132
:1022B0008AC0833209F08AC069EA72E0C8010E94CC
:1022C0007A0961E070E0C8010E940909C8010E9412
:1022D000460A64E670E080E090E00E9453046DE1FD
:1022E00073E0C8010E947A0961E070E0C8010E94B1
:1022F0000909C8010E94460A64E670E080E090E0A7
:102300000E94530466E872E0C8010E947A0961E005
:1023100070E0C8010E940909C8010E94460AAA2467
:10232000AA94BA2CFFEFAF1ABF0A28E0A216B10494
:1023300009F09ACF61E973E0C7010E945B15892B10
:1023400009F014C1D801E52D1D92EA95E9F767EB74
:1023500072E0CE0143960E947A0961E070E0CE01FE
:1023600043960E940909CE0143960E94460A0E94A4
:10237000ED04982E8823D9F3FAE28F132CC069ED6F
:1023800072E0CE0143960E947A0961E070E0CE01CE
:1023900043960E940909CE0143960E94460A64E6CC
:1023A00070E080E090E00E9453046DE173E0CE01A4
:1023B00043960E947A0961E070E0CE0143960E9444
:1023C0000909CE0143960E94460AC8CEF701EA0DDC
:1023D000FB1D8083A7CF23E2821326C069EA72E047
:1023E000CE0143960E947A0961E070E0CE014396E7
:1023F0000E940909CE0143960E94460A64E670E0F5
:1024000080E090E00E9453046DE173E0CE014396BA
:102410000E947A0961E070E0CE0143960E940909AA
:10242000CE0143960E94460A80ED890D853008F062
:102430009ECF69EE72E0CE0143960E947A0961E078
:1024400070E0CE0143960E940909CE0143960E9496
:10245000460AB12CA12C0E94ED048823E1F38A32B4
:1024600019F469EF72E08DCF833209F07AC069EA1E
:1024700072E0CE0143960E947A0961E070E0CE01DD
:1024800043960E940909CE0143960E94460A64E6DB
:1024900070E080E090E00E9453046DE173E0CE01B3
:1024A00043960E947A0961E070E0CE0143960E9453
:1024B0000909CE0143960E94460AAA24AA94BA2C7E
:1024C0003FEFA31AB30A88E0A816B10421F6A92D9C
:1024D000B52DAB02C0011124B80186569C4F0E9455
:1024E00064153092E103409203041092E2031092CB
:1024F00004040E9432080E94320891E9A92E93E058
:10250000B92EF50161915F0160538CED95E00E9459
:1025100003086A147B04A9F78AE9A82E83E0B82E81
:10252000912C812CF501E80DF91D608160538CED33
:1025300095E00E940308FFEF8F1A9F0A28E0821699
:10254000910481F739E0A30EB11CAC14BD0441F72E
:102550000E94C50664E170E080E090E00E945304B0
:10256000FDCDF801EA0DFB1D8083AACF6BE073E07F
:1025700083CE82EA94E00E94470218161906ECF511
:1025800062EA74E0CE0143960E94050A25E030E03D
:1025900050E040E0BE016D5E7F4FC8010E94AB0974
:1025A000C8010E945C08B82EC8010E94460ABB20E0
:1025B00009F419CED801E52D1D92EA95E9F72DE031
:1025C00030E045E050E0BE016D5E7F4FC7010E94E4
:1025D000AB09B801C7010E943A08C7010E94460A28
:1025E00063EA73E0C8010E945B15892B09F049C0BA
:1025F00060E072E082EA94E0F4CD85E094E00E942D
:102600004702181619060CF0F2CD65E074E0CE0111
:1026100043960E94050A25E030E050E040E0BE010C
:102620006D5E7F4FC8010E94AB09C8010E945C0823
:10263000B82EC8010E94460ABB2009F4D4CDD801A7
:10264000E52D1D92EA95E9F72DE030E045E050E0F8
:10265000BE016D5E7F4FC7010E94AB09B801C70183
:102660000E943A08C7010E94460A6CEA73E0C8015A
:102670000E945B15892B29F460E072E085E094E00C
:10268000B0CD0E944E0AAFCDEE0FFF1F881F8BBF4B
:102690000790F691E02D19940F931F93CF93DF933A
:1026A0008230910510F482E090E0E0917106F091A3
:1026B000720630E020E0B0E0A0E0309799F42115F8
:1026C000310509F44AC0281B390B24303105D8F5EF
:1026D0008A819B816115710589F1FB019383828356
:1026E000FE0111C0408151810281138148175907B1
:1026F000E0F04817590799F4109761F012960C937F
:10270000129713961C933296CF01DF91CF911F91B0
:102710000F9108950093710610937206F4CF21155E
:10272000310551F04217530738F0A901DB019A0136
:10273000BD01DF01F801C1CFEF01F9CF909372061F
:1027400080937106CDCFFE01E20FF31F8193919329
:102750002250310939832883D7CF20916F063091D9
:102760007006232B41F420912B0230912C023093E0
:10277000700620936F062091290230912A022115BC
:10278000310541F42DB73EB740912D0250912E02F4
:10279000241B350BE0916F06F0917006E217F307EA
:1027A000A0F42E1B3F0B2817390778F0AC014E5FC1
:1027B0005F4F2417350748F04E0F5F1F5093700688
:1027C00040936F06819391939FCFF0E0E0E09CCF20
:1027D000CF93DF930097E9F0FC01329713821282C6
:1027E000A0917106B0917206ED0130E020E01097E3
:1027F000A1F420813181820F931F20916F063091C7
:1028000070062817390709F061C0F0937006E0934D
:102810006F06DF91CF910895EA01CE17DF07E8F543
:102820004A815B819E0141155105B1F7E901FB83A6
:10283000EA8349915991C40FD51FEC17FD0761F444
:10284000808191810296840F951FE9019983888385
:10285000828193819B838A83F0E0E0E012968D91E0
:102860009C9113970097B9F52D913C911197CD014B
:102870000296820F931F20916F06309170062817E1
:10288000390739F6309751F5109272061092710699
:10289000B0937006A0936F06BCCFD383C2834081F0
:1028A0005181840F951FC817D90761F44E5F5F4FA0
:1028B00088819981480F591F518340838A819B8168
:1028C000938382832115310509F0B0CFF09372060E
:1028D000E09371069ECFFD01DC01C0CF138212820E
:1028E000D7CF4F925F926F927F928F929F92AF92CB
:1028F000BF92CF92DF92EF92FF920F931F93CF93ED
:10290000DF938C01009799F4CB01DF91CF911F9158
:102910000F91FF90EF90DF90CF90BF90AF909F907E
:102920008F907F906F905F904F900C944C13FC01B0
:10293000E60FF71F9C0122503109E217F30708F454
:10294000AEC0D901CD91DC911197C617D70720F100
:10295000C530D10578F0CE0104978617970750F05F
:10296000C61BD70B2297C193D1936D937C93CF0154
:102970000E94E813C801DF91CF911F910F91FF9042
:10298000EF90DF90CF90BF90AF909F908F907F900F
:102990006F905F904F9008955B01AC1ABD0A4C0197
:1029A0008C0E9D1EA0917106B0917206512C412C87
:1029B000F12CE12C109731F580916F069091700603
:1029C0008815990509F05CC04616570608F058C0EE
:1029D0008091290290912A02009741F48DB79EB709
:1029E00040912D0250912E02841B950BE817F90798
:1029F00008F055C0F0937006E0936F06F9017183FB
:102A00006083B8CF8D919C91119712966C9012971C
:102A100013967C901397A815B90559F56C0142E0FF
:102A2000C40ED11CCA14DB0420F1AC014A195B09A5
:102A3000DA011296159780F0628273825183408387
:102A4000D9016D937C93E114F10471F0D7011396D1
:102A5000FC93EE9312978ECF22968C0F9D1FF90157
:102A600091838083F301EFCFF0937206E0937106B8
:102A700081CF4816590608F42C017D01D3019ACF65
:102A8000CB010E944C137C01009749F0AE01B801C4
:102A90000E945215C8010E94E81387016BCF10E015
:102AA00000E068CFFB01DC0102C001900D924150B3
:102AB0005040D8F70895FB01DC018D9101908019F9
:102AC0000110D9F3990B0895FB01DC0101900D92DF
:102AD0000020E1F70895FB01DC014150504048F02F
:102AE00001900D920020C9F701C01D924150504045
:082AF000E0F70895F894FFCF10
:102AF80071776572747975696F70717765727479B9
:102B080075696F7000001C1D1E1F20212231323391
:102B18003435363738392A302300007306800000F0
:102B28000000009302D0011602E002470225023994
:102B380002000000000308D6073708AC07CF07BC1F
:102B480007AD07000000003009D00137085E060015
:102B58000000002A04EA03B903617574683B006544
:102B68007870697265417574683B00616C6C206CA3
:102B78006F636B65640061646D696E206D6F646579
:102B880020706173733A0061646D696E206D6F64C3
:102B98006520657869742E2E00696E7075742072D0
:102BA800657365742E2E0077686963682070617399
:102BB800732069732073656C656374656420746F32
:102BC800205B72655D7365740061646D696E206F6A
:102BD8007020657869742E2E00656E746572206E9B
:102BE800657720706173733A007061737320726542
:102BF80073657420657869742E2E0077726F6E671E
:0E2C08002061646D696E20706173732E2E0062
:00000001FF
