:020000040000FA
:100000000C9451010C9482010C9482010C94820195
:100010000C9482010C9482010C9482010C94820154
:100020000C9482010C9482010C9482010C94820144
:100030000C9482010C9482010C9482010C94820134
:100040000C9482010C9482010C9482010C94820124
:100050000C9482010C9482010C9482010C94C90BC3
:100060000C9482010C949F0B0C94750B0C948201E0
:100070000C9482010C9482010C9482010C948201F4
:100080000C9482010C9482010C9482010C948201E4
:100090000C944B0B0C94210B0C9482010C94130CBC
:1000A0000C9482010C9482010C9482010C948201C4
:1000B0000C9482010C9482010C9482010C948201B4
:1000C0000C9482010C9482010C9482010C94F70A26
:1000D0000C94CD0A0C9482010C9482010C94820140
:1000E0000C9482010C9451030C94AC070C9466039D
:1000F0000C94CF010C9474030C9447030C94BC072C
:100100000C9470030C94B9030C945E060C94550384
:100110000C942A040C94CF070C94AD070C944D0357
:100120000C94370D0C9437080C9487030C94CE0173
:100130000C946C030C9493020C9439020C947A0383
:100140000C9459030C9482030C945C030C948C0360
:100150000C9425020C94EA030C9462030C9447025D
:100160000C947E030C9403080C9416020C94300932
:100170000C94E0020C94D0010C9488030C94D607E4
:1001800000002100240027002A002D003000330049
:1001900001010000040107010A01000022002500FE
:1001A00028002B002E003100340002010000050160
:1001B00008010B01000020002300260029002C006C
:1001C0002F003200000100000301060109010505AE
:1001D0000505070508080808020202020A0A0808BD
:1001E00004040404010101010101010103030303EB
:1001F00003030303040707070C0C0C0C0C0C0C0C7A
:100200000202020206060606060606060B0B0B0B8A
:100210000B0B0B0B010210202008081020401020AF
:1002200040800201020108040201010204081020BA
:1002300040808040201008040201800402018040B8
:100240002010080402010804020101020408102021
:100250004080010204081020408000000A0B0209BF
:100260000C0D0E0807030401000000000000000050
:10027000000000000000000000000000000000007E
:10028000000000000000121110000000000000003B
:10029000000000000000000000000000000000005E
:1002A000370D11241FBECFEFD1E2DEBFCDBF00E07E
:1002B0000CBF26E0AEE1B3E001C01D92A337B20748
:1002C000E1F713E0A0E0B2E0E8EFFAE200E00BBFF4
:1002D00002C007900D92AE31B107D9F711E0C1E528
:1002E000D1E000E006C021970109802FFE010E94A5
:1002F0004413C035D10780E00807A9F70E94170F03
:100300000C947A150C940000FC01A089B18982E05C
:100310008C93A485B5851C92A685B7858FEC8C93AC
:10032000108EA489B58986E08C93A289B3898C91BB
:1003300080618C93A289B3898C9188608C93A28907
:10034000B3898C9180688C930288F389E02D808139
:100350008F7D8083089596E0899FD0011124A0505D
:10036000BA4F90967C936E935F9791E091969C9391
:100370009197E0916D06F0916E0690916C0699232D
:1003800039F0309751F0811108C080911C06199402
:10039000309719F05C968C91FACF089508950895DE
:1003A000AF92BF92CF92DF92EF92FF920F931F9383
:1003B000CF93DF936C017B018B01040F151FEB01C1
:1003C0005E01AE18BF08C017D10759F06991D60178
:1003D000ED91FC910190F081E02DC6011995892BDA
:1003E00079F7C501DF91CF911F910F91FF90EF90A9
:1003F000DF90CF90BF90AF900895FC01A089B189A4
:100400008C91A689B78982FD0FC09C91818D8F5FE9
:100410008F73228D821749F0A18DAE0FBF2FB11DB2
:100420005D969C93818F08958C910895FC01538D66
:10043000448D252F30E0842F90E0821B930B5417BE
:1004400010F0CF96089501970895FC01918D828D4B
:10045000981761F0A28DAE0FBF2FB11D5D968C91E4
:10046000928D9F5F9F73928F90E008958FEF9FEF23
:100470000895FC01918D828D981731F0828DE80FDF
:10048000F11D858D90E008958FEF9FEF0895FC0199
:10049000918D228D892F90E0805C9F4F821B910966
:1004A0008F739927089585E094E00E94470221E028
:1004B000892B09F420E0822F089582EA94E00E94BB
:1004C000470221E0892B09F420E0822F08958FE371
:1004D00095E00E94470221E0892B09F420E0822F59
:1004E0000895FC01A48DA80FB92FB11DA35ABF4FC9
:1004F0002C91848D90E001968F739927848FA68923
:10050000B7892C93A089B1898C91837080648C9376
:10051000938D848D981306C00288F389E02D808125
:100520008F7D80830895EF92FF920F931F93CF9357
:10053000DF93EC0181E0888F9B8D8C8D98131AC01E
:10054000E889F989808185FF15C09FB7F894EE8905
:10055000FF896083E889F989808183708064808362
:100560009FBF81E090E0DF91CF911F910F91FF90AD
:10057000EF900895F62E0B8D10E00F5F1F4F0F7355
:100580001127E02E8C8D8E110CC00FB607FCFACF10
:10059000E889F989808185FFF5CFCE010E9471023B
:1005A000F1CFEB8DEC0FFD2FF11DE35AFF4FF082E1
:1005B0009FB7F8940B8FEA89FB8980818062CFCF47
:1005C000CF93DF93EC01888D8823B9F0AA89BB898A
:1005D000E889F9898C9185FD03C0808186FD0DC075
:1005E0000FB607FCF7CF8C9185FFF2CF808185FF96
:1005F000EDCFCE010E947102E9CFDF91CF91089536
:1006000080E090E0892B29F00E94670281110E940E
:10061000000080E090E0892B29F00E945D028111AA
:100620000E94000080E090E0892B29F00E94530294
:1006300081110E94000080E090E0892B49F080E069
:1006400090E0892B29F00E94000081110C94000099
:1006500008958150823108F05AC0E82FF0E08827D1
:10066000EB5CFC4F8F4F0C94441355035903470325
:100670004D03510387035C03620366036C0370033D
:1006800074037A037E038703820388038C038091BB
:1006900080008F77809380000895809180008F7D07
:1006A000F9CF80918000877FF5CF84B58F7784BDA7
:1006B000089584B58F7DFBCF8091B0008F778093B4
:1006C000B00008958091B0008F7DF9CF80919000A7
:1006D0008F77809390000895809190008F7DF9CF5F
:1006E00080919000877FF5CF8091A0008F778093D5
:1006F000A00008958091A0008F7DF9CF8091A00087
:10070000877FF5CF809120018F7780932001089516
:10071000809120018F7DF9CF80912001877FF5CFD7
:10072000CF93DF93282F30E0F901E65AFD4F8491F3
:10073000F901EC5EFD4FD491F901E253FE4FC491F3
:10074000CC23A1F081110E942903EC2FF0E0EE0FE1
:10075000FF1FEC54FE4FA591B491EC91ED2381E085
:1007600090E009F480E0DF91CF91089580E090E07F
:10077000FACF862F0C9490031F93CF93DF93282FEB
:1007800030E0F901E65AFD4F8491F901EC5EFD4F2E
:10079000D491F901E253FE4FC491CC23A9F0162F56
:1007A00081110E942903EC2FF0E0EE0FFF1FE656A7
:1007B000FE4FA591B4918FB7F894EC91111108C038
:1007C000D095DE23DC938FBFDF91CF911F910895E9
:1007D000DE2BF8CF862F642F0C94BC03CF93DF93CE
:1007E00090E0FC01EC5EFD4F249182539E4FFC0192
:1007F00084918823C9F090E0880F991FFC01E0588C
:10080000FE4FA591B491FC01E656FE4FC591D491DF
:1008100061110DC09FB7F8948C91209582238C9321
:100820008881282328839FBFDF91CF91089562306C
:1008300051F49FB7F8943C91822F809583238C9339
:10084000E8812E2BEFCF8FB7F894EC912E2B2C93C1
:100850008FBFEACF862F642F0C94EE033FB7F89436
:100860008091670390916803A0916903B0916A0336
:1008700026B5A89B05C02F3F19F00196A11DB11DFB
:100880003FBFBA2FA92F982F8827BC01CD01620F37
:10089000711D811D911D42E0660F771F881F991FF2
:1008A0004A95D1F708958F929F92AF92BF92CF92BF
:1008B000DF92EF92FF924B015C010E942E046B01CC
:1008C0007C010E942E046C197D098E099F09683EE7
:1008D000734081059105A8F321E0821A9108A108CF
:1008E000B10888EEC80E83E0D81EE11CF11C81140B
:1008F0009104A104B10429F7FF90EF90DF90CF900D
:10090000BF90AF909F908F9008952FB7F89460910B
:1009100063037091640380916503909166032FBF18
:1009200008950F931F93CF93DF93C82FD62F86E0A0
:10093000C89FF0011124E050FA4F11A2878D90A1B9
:1009400081309105F1F058F082309105F1F1039773
:1009500009F440C0DF91CF911F910F910895662354
:10096000C9F361E070E08C2F0E94AB010E94850406
:10097000609358067093590680935A0690935B06CD
:10098000E9CF0E94850400915806109159062091E4
:100990005A0630915B06AB01BC01401B510B620B48
:1009A000730B80916A0690916B06B0E0A0E084170B
:1009B0009507A607B70748F462E070E08C2FDF9137
:1009C000CF911F910F910C94AB0163E070E0D111B6
:1009D000C1CFF4CF70E060E0F1CF6F927F928F9241
:1009E0009F92AF92BF92CF92DF92EF92FF920F93BE
:1009F0001F93CF93DF9381E080936C060E94850460
:100A000000915C0610915D0620915E0630915F06B4
:100A1000AB01BC01401B510B620B730B809168064C
:100A200090916906B0E0A0E084179507A607B70784
:100A300008F014C1C0E080916606C81760F4E09128
:100A40006206F0916306EC0FF11D62E080810E9466
:100A5000EE03CF5FF0CF712C812C912C5401839445
:100A600080916706781608F05FC0072D10E0E091CE
:100A70006406F0916506E00FF11F61E080810E943D
:100A8000EE03E0916406F0916506E00FF11F60E06F
:100A900080810E94BC03D501C401072C04C0880FCB
:100AA000991FAA1FBB1F0A94D2F76C017C01E09426
:100AB000F094612C809166066816F8F4C62DD0E09B
:100AC000E0916206F0916306EC0FFD1F80810E94A9
:100AD00090032496CC0FDD1FC050DA4F892B41F4D0
:100AE000888199818C299D29998388836394E2CF99
:100AF000888199818E219F21F7CFE0916406F09142
:100B00006506E00FF11F61E080810E94BC038091C7
:100B1000640690916506080F191F60E0F801808156
:100B20000E94EE0373949CCFC0E0D6E0FE018FEFED
:100B30009FEF278D30A1232B21F4148E968F858F64
:100B400011A2369626E0EC33F20799F7F12C96E0E5
:100B5000D92E80916606F81608F050C0E12C0F2DB2
:100B600010E0000F111F085F194F20916706E21671
:100B700008F042C0F801608171810E2C02C07695A8
:100B800067950A94E2F7F29E900111242E0D311D13
:100B9000E0E0F6E080E0458D568D2417350709F436
:100BA00061C08F5F36968A30B1F760FF23C0E0E006
:100BB000F6E090E080E0448D411117C0E0916006BE
:100BC000F0916106E20FF31F4081D89EF001D99E9B
:100BD000F00D1124E050FA4F448F368F258F10A26C
:100BE000178E61E00E94910405C0019636968A3006
:100BF000910509F7E394B9CFF394ABCF10E089A145
:100C00008111182F2696F6E0CC33DF07C1F70E943A
:100C1000850460935C0670935D0680935E069093F6
:100C20005F061123D9F0809121068823B9F08091C5
:100C30001F0690912006019789F480911C06DF9190
:100C4000CF911F910F91FF90EF90DF90CF90BF90C9
:100C5000AF909F908F907F906F90089510926C0648
:100C600080E0EDCF6170BECF0F931F93CF93DF93E2
:100C7000EC010E948504688779878A879B87CE016B
:100C80000E94250297FF15C00E94850408851985DA
:100C90002A853B85601B710B820B930B0C811D8198
:100CA0002E813F81601771078207930740F38FEF12
:100CB0009FEFDF91CF911F910F910895089520919B
:100CC0003F03260F3327331F21323105ECF42091E7
:100CD000DB03FC0190E080E0243069F082E00895BD
:100CE000A0913F032191AC01415E5C4FA40FB52F51
:100CF000B11D2C930196861798F380913F03680FDE
:100D000060933F0380E0089581E008951092DB0333
:100D100081E08093DA031092B50361E084E10E94E0
:100D2000BC0361E085E10E94BC03E9EBF0E0808157
:100D30008E7F808380818D7F808388E48093B8005C
:100D400085E48093BC000895CF93DF9391E0909366
:100D50001E038823B9F0C091B800D091BA008091E9
:100D6000BC008A7B8093BC0060E084E10E94BC03ED
:100D700060E085E10E94BC030E948606D093BA0021
:100D8000C093B800DF91CF910895CF92DF92EF9298
:100D9000FF920F931F93CF93DF93D091040481E0D0
:100DA000D13208F09CC0C09103040E942E046B0154
:100DB0007C018091DB0381116CC082E08093DB03B6
:100DC00081E08093DA038FEF8093D9031092D803E8
:100DD000D093D703A3EEB3E0E7EBF3E080E0D813C2
:100DE0008DC01092B6038091B603CC0FC82BC09370
:100DF000B6038091B503813009F084C01092B50329
:100E00000E942E046B017C018091B6038093BB008D
:100E10008091DD039091DE03A091DF03B091E003A8
:100E2000892B8A2B8B2BA1F00E942E040091DD03CD
:100E30001091DE032091DF033091E0036C197D09EE
:100E40008E099F09061717072807390708F442C0BB
:100E50008091BC0083FDD8CF85EC8093BC000E94BC
:100E60002E046B017C018091DB03823009F44CC0BD
:100E70008091D9038F3F09F469C08091D9038032F2
:100E800009F466C08091D903803309F463C084E01B
:100E900026C08091DD039091DE03A091DF03B09125
:100EA000E003892B8A2B8B2B09F483CF0E942E041D
:100EB0000091DD031091DE032091DF033091E00308
:100EC0006C197D098E099F0906171707280739072E
:100ED00008F06FCF8091DC030E94A40685E0109299
:100EE000E203109204041092E103DF91CF911F916D
:100EF0000F91FF90EF90DF90CF9008959D91919387
:100F00008F5F6DCF85EEA9CF8091DD039091DE03D9
:100F1000A091DF03B091E003892B8A2B8B2B09F47E
:100F2000A2CF0E942E040091DD031091DE032091D8
:100F3000DF033091E0036C197D098E099F090617C4
:100F400017072807390708F08ECFC4CF80E0C7CF36
:100F500082E0C5CF83E0C3CF0895E0917003809114
:100F60006F03E81730F4F0E0EF58FC4F808190E019
:100F700008958FEF9FEF08959091700380916F0314
:100F80002FEF3FEF981748F4E92FF0E0EF58FC4FB0
:100F9000208130E09F5F90937003C9010895809194
:100FA0006F0390917003891B990B0895CF92DF9284
:100FB000EF92FF920F931F93CF93DF937C01CB01AE
:100FC0008A012091E103222389F0EB016B01C40E19
:100FD000D51ECC15DD0569F06991D701ED91FC9125
:100FE0000190F081E02DC7011995F3CF642F0E9485
:100FF0005F06C801DF91CF911F910F91FF90EF9095
:10100000DF90CF900895CF93DF931F92CDB7DEB7D7
:1010100069832091E1032223F9F020910404203216
:1010200058F021E030E0FC013383228390E080E03F
:101030000F90DF91CF9108958091E203E82FF0E0C7
:10104000ED51FC4F998190838F5F8093E2038093F1
:10105000040481E090E0ECCF61E0CE0101960E94B3
:101060005F06F7CF60E08CED95E00C94030890E00C
:1010700080E008950F931F93CF93DF93FC010481C9
:1010800015810115110539F4FB011082DF91CF9113
:101090001F910F9108950830110510F008E010E03D
:1010A000EB01FC0160817181A801CE010E946B15EA
:1010B000C00FD11F1882EACFFC0124813581232B78
:1010C00049F069E672E0808191810E945B1521E020
:1010D000892B09F020E0822F0895CF93DF93EC0154
:1010E00060E08E810E94BC0361E08E810E94BC039F
:1010F00060E08E810E94BC038BE891E00197F1F7DC
:10110000DF91CF910895CF92DF92EF92FF920F93EC
:101110001F93CF93DF936C017C0187E0E80EF11CF5
:10112000D0E0C0E0062F10E0B8010C2E02C075958B
:1011300067950A94E2F76170F70181917F010E943F
:10114000BC032196C430D10579F7C601DF91CF9158
:101150001F910F91FF90EF90DF90CF900C946D084E
:10116000CF92DF92EF92FF920F931F93CF93DF9373
:10117000EC01F62E642F8C810E94BC038D818F3F81
:1011800019F060E00E94BC030F2D10E08F8584FFF2
:1011900025C06E0187E0C80ED11CF12CE12CB801EE
:1011A0000E2C02C0759567950A94E2F76170F601FE
:1011B00081916F010E94BC03FFEFEF1AFF0A88E0E4
:1011C000E816F10461F7CE01DF91CF911F910F91E5
:1011D000FF90EF90DF90CF900C946D08B80184E001
:1011E000759567958A95E1F7CE010E9483086F2D6A
:1011F000CE01DF91CF911F910F91FF90EF90DF9083
:10120000CF900C94830840E0682F88EE95E00C9412
:10121000B0080F931F93CF938C01C62F81E00E94DB
:1012200003098BE39FE10197F1F7E1E0EC0F809177
:10123000FB05E81710F0EFEFE80FF0E0E851FA4F88
:10124000848980680E940309F80144815581608186
:10125000718188EE95E0CF911F910F910C94D00190
:1012600041E00E94B00881E090E00895FB01019008
:101270000020E9F73197AF01461B570B0C94D001C2
:101280000F931F93CF93DF93EC018881998100978F
:1012900059F02A813B812617370730F081E0DF9132
:1012A000CF911F910F9108958B016F5F7F4F0E9427
:1012B0007114009759F0998388831B830A832C81CA
:1012C0003D81232B59F7FC011082E8CF80E0E7CF66
:1012D000CF93DF93EC0188819981009711F00E94F0
:1012E000E813198218821D821C821B821A82DF91E8
:1012F000CF910895EF92FF920F931F93CF93DF93B7
:10130000EC017B01198218821B821A821D821C82C9
:10131000FB0101900020E9F731978F01061B170BA5
:10132000B8010E944009811109C0CE01DF91CF911F
:101330001F910F91FF90EF900C9468091D830C830F
:10134000B70188819981DF91CF911F910F91FF9013
:10135000EF900C9464159F92AF92BF92CF92DF9260
:10136000EF92FF920F931F93CF93DF938C015B015A
:101370007A0169016DE173E00E947A09D501149642
:10138000CD91DC91EC16FD0650F5CC16DD0608F487
:10139000E601D501ED91FC911197EC0FFD1F9080B6
:1013A00010828D919C91E80EF91EE114F10471F008
:1013B000F70101900020E9F731976F01CE18DF089F
:1013C000B601C8010E944009811116C0C8010E94DF
:1013D0006809D5018D919C91C80FD91F9882C801C9
:1013E000DF91CF911F910F91FF90EF90DF90CF9001
:1013F000BF90AF909F900895F801D582C482B70145
:10140000808191810E946415E4CFCF92DF92EF92A8
:10141000FF920F931F93CF93DF931F921F92CDB72D
:10142000DEB78C016B016DE173E00E947A09C601A1
:101430000E94340697FD1EC089831A82F801E48059
:10144000F580FFEFEF1AFF0AB701C8010E944009BB
:10145000882369F3F8012081318184819581BE015F
:101460006F5F7F4F820F931F0E946415F801F58212
:10147000E482DDCFC8010F900F90DF91CF911F91D3
:101480000F91FF90EF90DF90CF900895FC01808145
:101490009181009711F00C94E8130895CF93DF9396
:1014A00000D000D0CDB7DEB76FE672E08FE395E0F5
:1014B0000E9436096FE672E082EA94E00E943609E3
:1014C0006FE672E085E094E00E9436096BE772E017
:1014D000CE0101960E947A0970E060E0CE0101968B
:1014E0000E940909CE0101960E94460A64E670E056
:1014F00080E090E00E9453046DE173E0CE0101961C
:101500000E947A0970E060E0CE0101960E9409090C
:10151000CE0101960E94460A26960FB6F894DEBFC9
:101520000FBECDBFDF91CF91089585ED8093BC00B4
:101530008091DD039091DE03A091DF03B091E00381
:101540000796A11DB11D23E0B695A79597958795A0
:101550002A95D1F72091BC0024FD03C01092DB0333
:1015600008954091DD035091DE036091DF03709197
:10157000E003452B462B472B69F30097A105B105E6
:1015800041F025E32A95F1F700000197A109B1097F
:10159000E1CF8091DC030C94A4061F920F920FB64A
:1015A0000F9211240BB60F922F933F934F935F939B
:1015B0006F937F938F939F93AF93BF93EF93FF931B
:1015C00085E094E00E947102FF91EF91BF91AF918D
:1015D0009F918F917F916F915F914F913F912F914B
:1015E0000F900BBE0F900FBE0F901F9018951F927B
:1015F0000F920FB60F9211240BB60F922F933F93B9
:101600004F935F936F937F938F939F93AF93BF930A
:10161000EF93FF9385E094E00E94FD01FF91EF912D
:10162000BF91AF919F918F917F916F915F914F91FA
:101630003F912F910F900BBE0F900FBE0F901F90F8
:1016400018951F920F920FB60F9211240BB60F929E
:101650002F933F934F935F936F937F938F939F93BA
:10166000AF93BF93EF93FF9382EA94E00E947102DD
:10167000FF91EF91BF91AF919F918F917F916F916A
:101680005F914F913F912F910F900BBE0F900FBE26
:101690000F901F9018951F920F920FB60F92112462
:1016A0000BB60F922F933F934F935F936F937F935C
:1016B0008F939F93AF93BF93EF93FF9382EA94E04E
:1016C0000E94FD01FF91EF91BF91AF919F918F918A
:1016D0007F916F915F914F913F912F910F900BBE32
:1016E0000F900FBE0F901F9018951F920F920FB67C
:1016F0000F9211240BB60F922F933F934F935F934A
:101700006F937F938F939F93AF93BF93EF93FF93C9
:101710008FE395E00E947102FF91EF91BF91AF912D
:101720009F918F917F916F915F914F913F912F91F9
:101730000F900BBE0F900FBE0F901F9018951F9229
:101740000F920FB60F9211240BB60F922F933F9367
:101750004F935F936F937F938F939F93AF93BF93B9
:10176000EF93FF938FE395E00E94FD01FF91EF91CE
:10177000BF91AF919F918F917F916F915F914F91A9
:101780003F912F910F900BBE0F900FBE0F901F90A7
:1017900018951F920F920FB60F9211242F933F931B
:1017A0008F939F93AF93BF93809163039091640352
:1017B000A0916503B09166033091620323E0230F8B
:1017C0002D3758F50196A11DB11D2093620380931A
:1017D000630390936403A0936503B09366038091C1
:1017E000670390916803A0916903B0916A03019621
:1017F000A11DB11D8093670390936803A0936903B3
:10180000B0936A03BF91AF919F918F913F912F91B8
:101810000F900FBE0F901F90189526E8230F029689
:10182000A11DB11DD2CF1F920F920FB60F9211249E
:101830000BB60F922F933F934F935F936F937F93CA
:101840008F939F93AF93BF93EF93FF938091B900D2
:10185000887F803609F44DC008F040C0883209F412
:10186000A9C028F5803109F49DC0C8F4882309F483
:10187000FBC0883009F496C0FF91EF91BF91AF9102
:101880009F918F917F916F915F914F913F912F9198
:101890000F900BBE0F900FBE0F901F9018958831C0
:1018A00009F488C0803241F78093D90314C0803492
:1018B00009F49DC040F48033B9F38833E9F680938E
:1018C000D90385ECB0C0803509F485C0883509F4AA
:1018D00096C0883489F60E94950ACECF883909F4DB
:1018E0008CC038F5883729F050F4883611F08037ED
:1018F00019F683E08093DB031092610357C08838A8
:1019000009F47BC0803919F0803809F0B5CF809197
:101910006103803208F071C0E091610381E08E0FB5
:10192000809361038091BB00F0E0EF5BFC4F80830C
:101930003DC0803B39F0E0F4803A09F479C0883A40
:1019400009F09ACF84E08093DB0310924003109259
:101950003F03E0916D03F0916E03199580913F0371
:1019600081110FC081E080933F0310921F0309C0D3
:10197000803C09F4A6CF883C09F4A3CF883B09F04A
:101980007BCFE091400381E08E0F80934003F0E035
:10199000E15EFC4F80818093BB0090914003809179
:1019A0003F0329C08091B6038093BB0085EC8093F0
:1019B000BC0062CF9091D8038091D703981758F557
:1019C000E091D80381E08E0F8093D803F0E0E954D2
:1019D000FC4F8081E9CFE091D80381E08E0F8093A6
:1019E000D8038091BB00F0E0E954FC4F80839091D4
:1019F000D8038091D7039817C8F285E8D8CFE09133
:101A0000D80381E08E0F8093D8038091BB00F0E073
:101A1000E954FC4F80838091DA0381115CCF81E02F
:101A20008093B50384EA8093BC001092DB0324CF3B
:101A300085EC8093BC001092DB03809161038032BF
:101A400030F4E0916103F0E0EF5BFC4F10826091B5
:101A5000610370E0E0916B03F0916C0381E493E02B
:101A600019951092610308CF1092D90334CFCF9308
:101A7000DF93109208041092070488EE93E0A0E030
:101A8000B0E08093090490930A04A0930B04B093F0
:101A90000C0423E332E0309306042093050445ED63
:101AA00050E0509312044093110444ED50E05093E1
:101AB00014044093130440ED50E0509316044093F7
:101AC000150441ED50E0509318044093170442ED83
:101AD00050E050931A044093190446ED50E050939F
:101AE0001C0440931B0410921E0410921F041092B9
:101AF0002004109221041092A5041092A404809353
:101B0000A6049093A704A093A804B093A9043093CB
:101B1000A3042093A2044DEC50E05093AF044093F3
:101B2000AE044CEC50E05093B1044093B00448EC48
:101B300050E05093B3044093B20449EC50E050930A
:101B4000B5044093B4044AEC50E05093B70440937A
:101B5000B6044EEC50E05093B9044093B804109290
:101B6000BB041092BC041092BD041092BE041092EB
:101B70004205109241058093430590934405A0933C
:101B80004505B09346053093400520933F0525EC6D
:101B900030E030934C0520934B0524EC30E030933B
:101BA0004E0520934D0520EC30E0309350052093F6
:101BB0004F0521EC30E0309352052093510522EC83
:101BC00030E0309354052093530526EC30E03093F9
:101BD00056052093550510925805109259051092FC
:101BE0005A0510925B051092DF051092DE05809376
:101BF000E0059093E105A093E205B093E30585E449
:101C000092E09093DD058093DC051092020610921D
:101C10000606109205061092070683E692E090935E
:101C2000010680930006ECE1F6E088E596E010827C
:101C300014821382158236968E179F07C1F789E1A9
:101C400092E0909363068093620686E192E090931F
:101C500065068093640684E08093660683E0809343
:101C600067068DE192E090936106809360068AE0BA
:101C700090E0909369068093680684EF91E09093DA
:101C80006B0680936A0610926E0610926D06109293
:101C90005C0610925D0610925E0610925F0610922E
:101CA0006C061092EB051092EA0587E592E090939E
:101CB000E9058093E80586E18093EC058FEF80933A
:101CC000ED0587E18093EE0588E18093EF0589E1DA
:101CD0008093F0058AE18093F1058BE18093F20512
:101CE0001092F3051092F4051092F5051092F60586
:101CF0001092F70581E08093FB051092FC0580E4CB
:101D00008093FD0580E18093FE0580E58093FF05CB
:101D100061E086E10E94EE038091ED058F3F19F0AE
:101D200061E00E94EE0361E08091EE050E94EE0307
:101D3000C8EED5E09E01285E35408091F70584FD10
:101D40000BC084E090E021962817390744F461E045
:101D50008E810E94EE03EECF88E090E0F4CF8BE31B
:101D60009DE00197F1F760E08091EC050E94BC03D3
:101D700060E08091EE050E94BC038091ED058F3FED
:101D800019F060E00E94BC038091F70584FD39C022
:101D900063E088EE95E00E948308CBE4D6E4CE01B0
:101DA0000197F1F763E088EE95E00E9483082197A0
:101DB000F1F763E088EE95E00E94830883E592E006
:101DC0000197F1F762E088EE95E00E948308809128
:101DD000F70580620E94030984E08093F8058CE097
:101DE0000E94030981E00E9403098BE39FE10197B0
:101DF000F1F782E08093F90586E0DF91CF910C94B2
:101E0000030980620E9403098BE496E40197F1F7CD
:101E10008091F70580620E94030983E592E00197B3
:101E2000F1F78091F70580620E940309D0CFCF932C
:101E3000DF93CDB7DEB768970FB6F894DEBF0FBE5D
:101E4000CDBF789484B5826084BD84B5816084BD43
:101E500085B5826085BD85B5816085BD80916E0048
:101E6000816080936E001092810080918100826079
:101E700080938100809181008160809381008091B6
:101E800080008160809380008091B10084608093A5
:101E9000B1008091B00081608093B000809191008A
:101EA0008260809391008091910081608093910085
:101EB000809190008160809390008091A100826069
:101EC0008093A1008091A10081608093A100809106
:101ED000A00081608093A0008091210182608093A6
:101EE0002101809121018160809321018091200155
:101EF00081608093200180917A00846080937A00D1
:101F000080917A00826080937A0080917A0081606B
:101F100080937A0080917A00806880937A00109292
:101F2000C1008FE395E00E94840182EA94E00E9460
:101F3000840185E094E00E94840110927003109265
:101F40006F031092E203109204040E9486068EEC46
:101F500091E090936E0380936D038FEC91E09093EA
:101F60006C0380936B03E1E9F3E089E0DF011D92EC
:101F70008A95E9F7EAE9F3E08BE1DF011D928A95A2
:101F8000E9F781E08093E10380E5809303040E94F8
:101F900032080E9432080E94C5060E942E046B017E
:101FA0007C018091DB03811165C081E08093DB03BC
:101FB0008093DA039FEF9093D9031092D8039FE1A7
:101FC0009093D7038093B6038091B603806A809381
:101FD000B6038091B503813009F00CC11092B503AE
:101FE0000E942E046B017C018091B6038093BB009C
:101FF0008091DD039091DE03A091DF03B091E003B7
:10200000892B8A2B8B2BA1F00E942E040091DD03DB
:102010001091DE032091DF033091E0036C197D09FC
:102020008E099F09061717072807390708F443C0C8
:102030008091BC0083FDD8CF85EC8093BC000E94CA
:102040002E046B017C018091DB03813009F4D4C044
:102050008091D803803208F0F1C08091D803A7EBBB
:10206000B3E0E1E7F3E090E0981751F12D9121936F
:102070009F5FFACF8091DD039091DE03A091DF0393
:10208000B091E003892B8A2B8B2B09F48ACF0E9415
:102090002E040091DD031091DE032091DF033091C7
:1020A000E0036C197D098E099F0906171707280799
:1020B000390708F076CF8091DC030E94A40680E007
:1020C0001092700380936F03E1E96E2EE3E07E2EA1
:1020D0008CED95E00E94BC07805DF30181933F0188
:1020E000F9E96F16F3E07F0699F710929A0365EB12
:1020F000E62E63E0F62E7AE9C72E73E0D72E10E0C5
:1021000000E08CED95E00E94BC07F601E00FF11FA6
:10211000805D80830F5F1F4F0830110591F7D60156
:1021200019961C92B9E0CB0ED11CEC14FD0439F7C2
:1021300049E0542E7E01EAE0EE0EF11C8E010F5FA5
:102140001F4F3324339450E5452E0E94ED0418169A
:102150002CF48A3209F074C00E944E0A8FE395E095
:102160000E944702181619060CF003C26FE375E0CF
:10217000CE0143960E94050A25E030E050E040E0A1
:10218000BE016D5E7F4FC8010E94AB09C8010E946D
:102190005C08B82EC8010E94460ABB2021F1D80174
:1021A000E52D1D92EA95E9F72DE030E045E050E09D
:1021B000BE016D5E7F4FC7010E94AB09B801C70128
:1021C0000E943A08C7010E94460A6AE973E0C80102
:1021D0000E945B15892B09F054C260E072E08FE326
:1021E00095E00E943609CE0143960E94460A0E945D
:1021F0000003ABCF85EE21CF8091DD039091DE030C
:10220000A091DF03B091E003892B8A2B8B2B09F47B
:102210001ACF0E942E040091DD031091DE0320915D
:10222000DF033091E0036C197D098E099F090617C1
:1022300017072807390708F006CF3DCF80E20FCFF8
:10224000D701E52D1D92EA95E9F766E872E0C8012D
:102250000E947A0961E070E0C8010E940909C80182
:102260000E94460AB12CA12C0E94ED048823E1F3C0
:102270008A32F9F467E972E0C8010E947A0961E0E4
:1022800070E0C8010E940909C8010E94460A64E67C
:1022900070E080E090E00E9453046DE173E0C801BB
:1022A0000E947A0961E070E0C8010E940909C80132
:1022B0008AC0833209F08AC069EA72E0C8010E94CC
:1022C0007A0961E070E0C8010E940909C8010E9412
:1022D000460A64E670E080E090E00E9453046DE1FD
:1022E00073E0C8010E947A0961E070E0C8010E94B1
:1022F0000909C8010E94460A64E670E080E090E0A7
:102300000E94530466E872E0C8010E947A0961E005
:1023100070E0C8010E940909C8010E94460AAA2467
:10232000AA94BA2CFFEFAF1ABF0A28E0A216B10494
:1023300009F09ACF61E973E0C7010E945B15892B10
:1023400009F014C1D801E52D1D92EA95E9F767EB74
:1023500072E0CE0143960E947A0961E070E0CE01FE
:1023600043960E940909CE0143960E94460A0E94A4
:10237000ED04982E8823D9F3FAE28F132CC069ED6F
:1023800072E0CE0143960E947A0961E070E0CE01CE
:1023900043960E940909CE0143960E94460A64E6CC
:1023A00070E080E090E00E9453046DE173E0CE01A4
:1023B00043960E947A0961E070E0CE0143960E9444
:1023C0000909CE0143960E94460AC8CEF701EA0DDC
:1023D000FB1D8083A7CF23E2821326C069EA72E047
:1023E000CE0143960E947A0961E070E0CE014396E7
:1023F0000E940909CE0143960E94460A64E670E0F5
:1024000080E090E00E9453046DE173E0CE014396BA
:102410000E947A0961E070E0CE0143960E940909AA
:10242000CE0143960E94460A80ED890D853008F062
:102430009ECF69EE72E0CE0143960E947A0961E078
:1024400070E0CE0143960E940909CE0143960E9496
:10245000460AB12CA12C0E94ED048823E1F38A32B4
:1024600019F469EF72E08DCF833209F07AC069EA1E
:1024700072E0CE0143960E947A0961E070E0CE01DD
:1024800043960E940909CE0143960E94460A64E6DB
:1024900070E080E090E00E9453046DE173E0CE01B3
:1024A00043960E947A0961E070E0CE0143960E9453
:1024B0000909CE0143960E94460AAA24AA94BA2C7E
:1024C0003FEFA31AB30A88E0A816B10421F6A92D9C
:1024D000B52DAB02C0011124B80186569C4F0E9455
:1024E00064153092E103409203041092E2031092CB
:1024F00004040E9432080E94320891E9A92E93E058
:10250000B92EF50161915F0160538CED95E00E9459
:1025100003086A147B04A9F78AE9A82E83E0B82E81
:10252000912C812CF501E80DF91D608160538CED33
:1025300095E00E940308FFEF8F1A9F0A28E0821699
:10254000910481F739E0A30EB11CAC14BD0441F72E
:102550000E94C50664E170E080E090E00E945304B0
:10256000FDCDF801EA0DFB1D8083AACF6BE073E07F
:1025700083CE82EA94E00E94470218161906ECF511
:1025800062EA74E0CE0143960E94050A25E030E03D
:1025900050E040E0BE016D5E7F4FC8010E94AB0974
:1025A000C8010E945C08B82EC8010E94460ABB20E0
:1025B00009F419CED801E52D1D92EA95E9F72DE031
:1025C00030E045E050E0BE016D5E7F4FC7010E94E4
:1025D000AB09B801C7010E943A08C7010E94460A28
:1025E00063EA73E0C8010E945B15892B09F049C0BA
:1025F00060E072E082EA94E0F4CD85E094E00E942D
:102600004702181619060CF0F2CD65E074E0CE0111
:1026100043960E94050A25E030E050E040E0BE010C
:102620006D5E7F4FC8010E94AB09C8010E945C0823
:10263000B82EC8010E94460ABB2009F4D4CDD801A7
:10264000E52D1D92EA95E9F72DE030E045E050E0F8
:10265000BE016D5E7F4FC7010E94AB09B801C70183
:102660000E943A08C7010E94460A6CEA73E0C8015A
:102670000E945B15892B29F460E072E085E094E00C
:10268000B0CD0E944E0AAFCDEE0FFF1F881F8BBF4B
:102690000790F691E02D19940F931F93CF93DF933A
:1026A0008230910510F482E090E0E0917106F091A3
:1026B000720630E020E0B0E0A0E0309799F42115F8
:1026C000310509F44AC0281B390B24303105D8F5EF
:1026D0008A819B816115710589F1FB019383828356
:1026E000FE0111C0408151810281138148175907B1
:1026F000E0F04817590799F4109761F012960C937F
:10270000129713961C933296CF01DF91CF911F91B0
:102710000F9108950093710610937206F4CF21155E
:10272000310551F04217530738F0A901DB019A0136
:10273000BD01DF01F801C1CFEF01F9CF909372061F
:1027400080937106CDCFFE01E20FF31F8193919329
:102750002250310939832883D7CF20916F063091D9
:102760007006232B41F420912B0230912C023093E0
:10277000700620936F062091290230912A022115BC
:10278000310541F42DB73EB740912D0250912E02F4
:10279000241B350BE0916F06F0917006E217F307EA
:1027A000A0F42E1B3F0B2817390778F0AC014E5FC1
:1027B0005F4F2417350748F04E0F5F1F5093700688
:1027C00040936F06819391939FCFF0E0E0E09CCF20
:1027D000CF93DF930097E9F0FC01329713821282C6
:1027E000A0917106B0917206ED0130E020E01097E3
:1027F000A1F420813181820F931F20916F063091C7
:1028000070062817390709F061C0F0937006E0934D
:102810006F06DF91CF910895EA01CE17DF07E8F543
:102820004A815B819E0141155105B1F7E901FB83A6
:10283000EA8349915991C40FD51FEC17FD0761F444
:10284000808191810296840F951FE9019983888385
:10285000828193819B838A83F0E0E0E012968D91E0
:102860009C9113970097B9F52D913C911197CD014B
:102870000296820F931F20916F06309170062817E1
:10288000390739F6309751F5109272061092710699
:10289000B0937006A0936F06BCCFD383C2834081F0
:1028A0005181840F951FC817D90761F44E5F5F4FA0
:1028B00088819981480F591F518340838A819B8168
:1028C000938382832115310509F0B0CFF09372060E
:1028D000E09371069ECFFD01DC01C0CF138212820E
:1028E000D7CF4F925F926F927F928F929F92AF92CB
:1028F000BF92CF92DF92EF92FF920F931F93CF93ED
:10290000DF938C01009799F4CB01DF91CF911F9158
:102910000F91FF90EF90DF90CF90BF90AF909F907E
:102920008F907F906F905F904F900C944C13FC01B0
:10293000E60FF71F9C0122503109E217F30708F454
:10294000AEC0D901CD91DC911197C617D70720F100
:10295000C530D10578F0CE0104978617970750F05F
:10296000C61BD70B2297C193D1936D937C93CF0154
:102970000E94E813C801DF91CF911F910F91FF9042
:10298000EF90DF90CF90BF90AF909F908F907F900F
:102990006F905F904F9008955B01AC1ABD0A4C0197
:1029A0008C0E9D1EA0917106B0917206512C412C87
:1029B000F12CE12C109731F580916F069091700603
:1029C0008815990509F05CC04616570608F058C0EE
:1029D0008091290290912A02009741F48DB79EB709
:1029E00040912D0250912E02841B950BE817F90798
:1029F00008F055C0F0937006E0936F06F9017183FB
:102A00006083B8CF8D919C91119712966C9012971C
:102A100013967C901397A815B90559F56C0142E0FF
:102A2000C40ED11CCA14DB0420F1AC014A195B09A5
:102A3000DA011296159780F0628273825183408387
:102A4000D9016D937C93E114F10471F0D7011396D1
:102A5000FC93EE9312978ECF22968C0F9D1FF90157
:102A600091838083F301EFCFF0937206E0937106B8
:102A700081CF4816590608F42C017D01D3019ACF65
:102A8000CB010E944C137C01009749F0AE01B801C4
:102A90000E945215C8010E94E81387016BCF10E015
:102AA00000E068CFFB01DC0102C001900D924150B3
:102AB0005040D8F70895FB01DC018D9101908019F9
:102AC0000110D9F3990B0895FB01DC0101900D92DF
:102AD0000020E1F70895FB01DC014150504048F02F
:102AE00001900D920020C9F701C01D924150504045
:102AF000E0F70895F894FFCF71776572747975697E
:102B00006F7071776572747975696F7000001C1D44
:102B10001E1F2021223132333435363738392A30DE
:102B200023000073068000000000009302D001160D
:102B300002E002470225023902000000000308D625
:102B4000073708AC07CF07BC07AD0700000000300F
:102B500009D00137085E06000000002A04EA03B924
:102B600003617574683B00657870697265417574BE
:102B7000683B00616C6C206C6F636B656400616422
:102B80006D696E206D6F646520706173733A0061CA
:102B9000646D696E206D6F646520657869742E2E92
:102BA00000696E7075742072657365742E2E0077DF
:102BB0006869636820706173732069732073656C42
:102BC000656374656420746F205B72655D73657402
:102BD0000061646D696E206F7020657869742E2EB7
:102BE00000656E746572206E657720706173733A4C
:102BF0000070617373207265736574206578697401
:102C00002E2E0077726F6E672061646D696E207082
:062C10006173732E2E001B
:020000040003F7
:10E000000D9489F10D94B2F10D94B2F10D94B2F129
:10E010000D94B2F10D94B2F10D94B2F10D94B2F1F0
:10E020000D94B2F10D94B2F10D94B2F10D94B2F1E0
:10E030000D94B2F10D94B2F10D94B2F10D94B2F1D0
:10E040000D94B2F10D94B2F10D94B2F10D94B2F1C0
:10E050000D94B2F10D94B2F10D94B2F10D94B2F1B0
:10E060000D94B2F10D94B2F10D94B2F10D94B2F1A0
:10E070000D94B2F10D94B2F10D94B2F10D94B2F190
:10E080000D94B2F10D94B2F10D94B2F10D94B2F180
:10E090000D94B2F10D94B2F10D94B2F10D94B2F170
:10E0A0000D94B2F10D94B2F10D94B2F10D94B2F160
:10E0B0000D94B2F10D94B2F10D94B2F10D94B2F150
:10E0C0000D94B2F10D94B2F10D94B2F10D94B2F140
:10E0D0000D94B2F10D94B2F10D94B2F10D94B2F130
:10E0E0000D94B2F141546D656761323536300041AF
:10E0F000726475696E6F206578706C6F72657220DE
:10E1000073746B3530305632206279204D4C530099
:10E11000426F6F746C6F616465723E004875683F52
:10E1200000436F6D70696C6564206F6E203D200048
:10E130004350552054797065202020203D20005FF9
:10E140005F4156525F415243485F5F3D2000415658
:10E1500052204C696243205665723D20004743437C
:10E160002056657273696F6E203D20004350552024
:10E1700049442020202020203D20004C6F7720663D
:10E18000757365202020203D20004869676820665F
:10E190007573652020203D200045787420667573D6
:10E1A00065202020203D20004C6F636B2066757336
:10E1B000652020203D20004D617220203720323024
:10E1C000313300312E362E3800342E332E350056A2
:10E1D00023202020414444522020206F7020636F70
:10E1E00064652020202020696E73747275637469E1
:10E1F0006F6E2061646472202020496E74657272B3
:10E20000757074006E6F20766563746F7200726A49
:10E210006D702020006A6D70200057686174207056
:10E220006F72743A00506F7274206E6F7420737541
:10E2300070706F72746564004D7573742062652030
:10E2400061206C6574746572002000577269747483
:10E25000696E672045450052656164696E672045B7
:10E26000450045452065727220636E743D00504F35
:10E27000525400303D5A65726F2061646472003FF1
:10E280003D43505520737461747300403D454550C3
:10E29000524F4D207465737400423D426C696E6B41
:10E2A000204C454400453D44756D70204545505215
:10E2B0004F4D00463D44756D7020464C415348001B
:10E2C000483D48656C70004C3D4C69737420492F83
:10E2D0004F20506F72747300513D51756974005234
:10E2E0003D44756D702052414D00563D73686F7707
:10E2F00020696E7465727275707420566563746FF0
:10E30000727300593D506F727420626C696E6B00BD
:10E310002A0011241FBECFEFD1E2DEBFCDBF01E046
:10E320000CBF12E0A0E0B2E0EEE1FDEF03E00BBFB6
:10E3300002C007900D92A030B107D9F712E0A0E01B
:10E34000B2E001C01D92AE30B107E1F70F9460F367
:10E350000D948DFE01E20EBF0FEF0DBF11241FBE05
:10E360000D9460F30D9400F020E030E040ED57E0B4
:10E3700005C0FA013197F1F72F5F3F4F2817390792
:10E38000C0F308959C01260F311DC901A0E0B0E043
:10E390002F5F3F4FABBFFC018791882361F08093D3
:10E3A000C6008091C00086FFFCCF8091C0008064D1
:10E3B0008093C000EACF08958DE08093C6008091DD
:10E3C000C00086FFFCCF8091C00080648093C000B5
:10E3D0008AE08093C6008091C00086FFFCCF8091C8
:10E3E000C00080648093C00008950F94C2F10F9420
:10E3F000DCF10895FC019081992359F09093C600B7
:10E400008091C00086FFFCCF8091C0008064809323
:10E41000C0003196992379F70895282F982F929567
:10E420009F70892F805D8A3308F0895F8093C600D2
:10E430008091C00086FFFCCF8091C00080648093F3
:10E44000C000822F8F70982F905D9A3308F0995FEB
:10E450009093C6008091C00086FFFCCF8091C000E1
:10E4600080648093C00008959C01FB01853691056E
:10E470001CF46330710594F0C90164E670E00F94F8
:10E480002EFE605D7F4F6093C6008091C00086FFC6
:10E49000FCCF8091C00080648093C0002B30310598
:10E4A00014F43297B4F0C90164E670E00F942EFEC4
:10E4B0006AE070E00F942EFE605D7F4F6093C600AF
:10E4C0008091C00086FFFCCF8091C0008064809363
:10E4D000C000C9016AE070E00F942EFEC0968093E0
:10E4E000C6008091C00086FFFCCF8091C000806490
:10E4F0008093C00008951F93182F8EE692EE60E07F
:10E500000F94C2F11093C6008091C00086FFFCCF2B
:10E510008091C00080648093C0000F94DCF11F9153
:10E5200008952F923F924F925F926F927F928F92B7
:10E530009F92AF92BF92CF92DF92EF92FF920F9392
:10E540001F93DF93CF93CDB7DEB762970FB6F894E2
:10E55000DEBF0FBECDBF382E622ECA01DB015C01CB
:10E560006D01772420E2222E2E010894411C511CBB
:10E570008BC081E0A81680E0B80681E0C80680E084
:10E58000D80628F0C601AA27BB270F940DF2BB2797
:10E59000AD2D9C2D8B2D0F940DF28A2D0F940DF225
:10E5A0002092C6008091C00086FFFCCF8091C00001
:10E5B00080648093C0009DE29093C6008091C0006B
:10E5C00086FFFCCF8091C00080648093C0002092C1
:10E5D000C6008091C00086FFFCCF8091C00080649F
:10E5E0008093C00019828601750188249924A1E0D6
:10E5F0003A1651F03A1620F0B2E03B1661F409C029
:10E600000BBFF701779007C0C7010F9477FE782EF4
:10E6100002C0F7017080872D0F940DF22092C60082
:10E620008091C00086FFFCCF8091C0008064809301
:10E63000C000872D8052F401EF70F0708F3520F408
:10E64000E40DF51D708204C0E40DF51D8EE280839B
:10E650000894E11CF11C011D111D0894811C911CE2
:10E6600090E18916910409F0C2CF80E190E0A0E02A
:10E67000B0E0A80EB91ECA1EDB1E198AC2010F9493
:10E68000FAF10F94DCF16A94662009F072CF629679
:10E690000FB6F894DEBF0FBECDBFCF91DF911F91B3
:10E6A0000F91FF90EF90DF90CF90BF90AF909F9031
:10E6B0008F907F906F905F904F903F902F90089534
:10E6C0002F923F924F925F926F927F928F929F9282
:10E6D000AF92BF92CF92DF92EF92FF920F931F9370
:10E6E000DF93CF93CDB7DEB7CD53D1400FB6F894BB
:10E6F000DEBF0FBECDBF01E20EBF0FEF0DBF94B75F
:10E70000F894A89514BE80916000886180936000A1
:10E7100010926000789493FF05C0E0910002F091A0
:10E7200001021995279A2F9A8091C00082608093E8
:10E73000C00080E18093C40088E18093C1000000A4
:10E74000EE24FF24870144E0A42EB12CCC24DD2448
:10E7500024C0C5010197F1F70894E11CF11C011DCB
:10E76000111D21E2E2162EE4F20620E0020720E06D
:10E77000120718F031E0C32ED12CC801B70127ECE5
:10E780003BE140E050E00F9441FE611571058105C9
:10E79000910519F485B1805885B98091C00087FD35
:10E7A00003C0C114D104A9F2A6014F5F5F4FC25E3E
:10E7B000DE4F59834883CE51D140C25EDE4F8881FF
:10E7C0009981CE51D140019711F00D9410FEC05D9A
:10E7D000DE4F19821882C053D14060E0C15DDE4F28
:10E7E0001882CF52D14088249924C35DDE4F19820C
:10E7F0001882CD52D140C05EDE4F188219821A8233
:10E800001B82C052D140CE5CDE4F188219821A8220
:10E810001B82C253D140EE24FF2487010BBFF701B6
:10E8200007911691C45CDE4F19830883CC53D14005
:10E830000D940BFEC25EDE4F28813981CE51D1404E
:10E840002130310509F52091C600C25EDE4F1982E4
:10E850001882CE51D14022C02F5F3F4F4F4F5F4FA4
:10E86000213082E138078AE7480780E0580780F0C6
:10E87000C45CDE4FE881F981CC53D140EF5FFF4F9C
:10E8800019F0EE27FF27099420E030E040E050E047
:10E890008091C00087FFE0CF2091C600C35DDE4FAE
:10E8A00048815981CD52D1404F5F5F4FC35DDE4FEC
:10E8B00059834883CD52D140213209F063C64A3092
:10E8C000510508F05FC60894811C911C53E0851621
:10E8D000910409F059C600E010E018C081E280936D
:10E8E000C6008091C00086FFFCCF8091C00080648C
:10E8F0008093C0002F5F3F4F2931310579F70F9486
:10E90000DCF10F5F1F4F0530110519F020E030E0FA
:10E91000E5CF10920A0210920B0210920C02109294
:10E920000D02109206021092070210920802109235
:10E930000902109202021092030210920402109235
:10E9400005028FEE90EE60E00F94F5F180E191EE1C
:10E9500060E00F94C2F18091C00087FFFCCF9091DE
:10E96000C600903608F09F759032B8F09093C600BC
:10E970008091C00086FFFCCF8091C00080648093AE
:10E98000C000A0E2A093C6008091C00086FFFCCF2B
:10E990008091C00080648093C000983409F4D7C18E
:10E9A0009934B8F4923409F459C1933458F490333B
:10E9B00019F1903308F4E3C59F33A1F1903409F0C5
:10E9C000DEC5BDC0953409F470C1963409F0D7C5D1
:10E9D00098C1923509F42BC2933538F49C3409F46C
:10E9E000F5C1913509F0CBC518C2963509F445C279
:10E9F000993509F0C4C567C483E792EE62E00F94CD
:10EA0000F5F110920602109207021092080210927D
:10EA1000090210920A0210920B0210920C0210923C
:10EA20000D0213C18FE792EE62E00F94F5F18FEEC5
:10EA300090EE60E00F94F5F181E291EE60E00F94CA
:10EA4000C2F187EB91EE60E00F94F5F180E391EE77
:10EA500060E00F94C2F184EE90EE60E00F94F5F167
:10EA60008FE391EE60E00F94C2F186E090E061E008
:10EA700070E00F9434F20F94DCF18DE591EE60E0DC
:10EA80000F94C2F189EC91EE60E00F94F5F18EE401
:10EA900091EE60E00F94C2F183EC91EE60E00F9490
:10EAA000F5F18CE691EE60E00F94C2F18EE10F94E7
:10EAB0000DF288E90F940DF281E00F940DF20F949E
:10EAC000DCF18BE791EE60E00F94C2F119E0E0E039
:10EAD000F0E010935700E4918E2F0F940DF20F94F5
:10EAE000DCF18AE891EE60E00F94C2F1E3E0F0E03F
:10EAF00010935700E4918E2F0F940DF20F94DCF1D8
:10EB000089E991EE60E00F94C2F1E2E0F0E0109349
:10EB10005700E4918E2F0F940DF20F94DCF188EAE8
:10EB200091EE60E00F94C2F1E1E0F0E01093570045
:10EB30001491812F0F940DF20F94DCF107CF8BE825
:10EB400092EE62E00F94F5F18BE492EE60E00F94A8
:10EB5000F5F10F94DCF100E010E019C0C8016F2D51
:10EB60000F947FFEFF2031F489E492EE60E00F9471
:10EB7000C2F10BC0F092C6008091C00086FFFCCFAE
:10EB80008091C00080648093C0000F5F1F4FC80158
:10EB900081519F41A0E0B0E0ABBFFC01F790BAE229
:10EBA000FB1621F0E2E000301E07C1F60F94DCF105
:10EBB0000F94DCF187E592EE60E00F94F5F10F948D
:10EBC000DCF1CC24DD2400E010E01EC0C8010F946D
:10EBD00077FEF82E882331F489E492EE60E00F94FA
:10EBE000C2F10BC08093C6008091C00086FFFCCFAD
:10EBF0008091C00080648093C000FE1419F00894D6
:10EC0000C11CD11C0F5F1F4FC80181519F41A0E063
:10EC1000B0E0ABBFFC01E790FAE2EF1621F022E092
:10EC20000030120799F60F94DCF10F94DCF182E6C4
:10EC300092EE60E00F94C2F1C60161E070E00F94C3
:10EC400034F20F94DCF10F94DCF110920202109276
:10EC50000302109204021092050278CE89E992EE26
:10EC600062E00F94F5F1279A2F9A16C02F9880E052
:10EC700090E0E0EDF7E03197F1F7019684369105E9
:10EC8000C1F72F9A80E090E0E0EDF7E03197F1F7DF
:10EC9000019684369105C1F78091C00087FFE6CFC9
:10ECA0008091C00087FFFCCF64C485EA92EE62E0E9
:10ECB0000F94F5F140910202509103026091040219
:10ECC0007091050281E020E10F9491F2809102029F
:10ECD00090910302A0910402B091050280509F4FD1
:10ECE000AF4FBF4F8093020290930302A0930402A0
:10ECF000B093050280509041A040B04008F426CE69
:10ED0000A4CF83EB92EE62E00F94F5F140910602FE
:10ED100050910702609108027091090280E020E1A1
:10ED20000F9491F28091060290910702A09108023F
:10ED3000B091090280509F4FAF4FBF4F80930602A2
:10ED400090930702A0930802B0930902FFCD80ECD4
:10ED500092EE62E00F94F5F183E792EE60E00F949B
:10ED6000F5F18FE792EE60E00F94F5F18BE892EE0B
:10ED700060E00F94F5F189E992EE60E00F94F5F10F
:10ED800085EA92EE60E00F94F5F183EB92EE60E09D
:10ED90000F94F5F180EC92EE60E00F94F5F187ECC2
:10EDA00092EE60E00F94F5F188ED92EE60E00F9442
:10EDB000F5F18FED92EE60E00F94F5F18AEE92EEB0
:10EDC00060E00F94F5F183E093EEBDCD87EC92EE19
:10EDD00062E00F94F5F181E40F947BF282E40F94EA
:10EDE0007BF283E40F947BF284E40F947BF285E45E
:10EDF0000F947BF286E40F947BF287E40F947BF20E
:10EE000088E40F947BF28AE40F947BF28BE40F94F6
:10EE10007BF28CE40F947BF299CD88ED92EE62E068
:10EE20000F94F5F1772473948824992409C48FED05
:10EE300092EE62E00F94F5F140910A0250910B02BC
:10EE400060910C0270910D0282E020E10F9491F22A
:10EE500080910A0290910B02A0910C02B0910D02D8
:10EE600080509F4FAF4FBF4F80930A0290930B0289
:10EE7000A0930C02B0930D0269CD8AEE92EE62E08F
:10EE80000F94F5F184EE90EE60E00F94F5F18FECC5
:10EE900091EE60E00F94F5F1662477244301CC5D98
:10EEA000DE4F19821882C452D140D401C301B695F5
:10EEB000A79597958795CA5DDE4F88839983AA8326
:10EEC000BB83C652D140CC5DDE4FA881B981C4520C
:10EED000D1401196CC5DDE4FB983A883C452D14096
:10EEE000CD0162E070E00F9434F2B0E2B093C6005E
:10EEF0008091C00086FFFCCF8091C0008064809329
:10EF0000C000EDE2E093C6008091C00086FFFCCF18
:10EF10008091C00080648093C000F0E2F093C6004E
:10EF20008091C00086FFFCCF8091C00080648093F8
:10EF3000C000CA5DDE4FE880F9800A811B81C6529D
:10EF4000D140BB27A12F902F8F2D0F940DF2CA5DBA
:10EF5000DE4F8881C652D1400F940DF2B0E2FB2EF5
:10EF6000F092C6008091C00086FFFCCF8091C00067
:10EF700080648093C0000DE30093C6008091C000C0
:10EF800086FFFCCF8091C00080648093C00010E2B7
:10EF90001093C6008091C00086FFFCCF8091C00016
:10EFA00080648093C0008BBEF3012791C65DDE4F65
:10EFB0002883CA52D140A22EBB24CC24DD2408943D
:10EFC000611C711C811C911C8BBEF3018791282E42
:10EFD0003324442455240894611C711C811C911C09
:10EFE0008BBEF3013791C55DDE4F3883CB52D140E4
:10EFF0000894611C711C811C911C8BBEF30147910C
:10F00000C45DDE4F4883CC52D140ADEFEA2EAFEF66
:10F01000FA2EAFEF0A2FAFEF1A2F6E0C7F1C801E57
:10F02000911E142D032DF22CEE24EA0CFB1C0C1D5A
:10F030001D1D0F940DF220E22093C6008091C000A8
:10F0400086FFFCCF8091C00080648093C000C65DC5
:10F05000DE4F8881CA52D1400F940DF230E23093D6
:10F06000C6008091C00086FFFCCF8091C000806404
:10F070008093C000C45DDE4F8881CC52D1400F9494
:10F080000DF240E24093C6008091C00086FFFCCFA5
:10F090008091C00080648093C000C55DDE4F888190
:10F0A000CB52D1400F940DF250E25093C6008091A4
:10F0B000C00086FFFCCF8091C00080648093C000B8
:10F0C0008FEFE8168FEFF80680E0080780E018075A
:10F0D00031F484E092EE60E00F94C2F1DFC0D80119
:10F0E000C7018070907CA070B0708050904CA040A0
:10F0F000B040D1F52FEF3FE340E050E0E222F322B1
:10F1000004231523CA5DDE4FA880B980CA80DB8046
:10F11000C652D140AE0CBF1CC01ED11EAA0CBB1CD7
:10F12000CC1CDD1C8EE092EE60E00F94C2F1BB2798
:10F13000A12F902F8F2D0F940DF28E2D0F940DF285
:10F1400030E23093C6008091C00086FFFCCF8091F2
:10F15000C00080648093C0004EE34093C60080915D
:10F16000C00086FFFCCF87C08EE09EEFA0E0B0E03D
:10F17000E822F9220A231B239CE0E91694E9F90608
:10F1800090E0090790E0190709F088C0C45DDE4FE0
:10F19000A881CC52D140EA2EFF2400E010E0102FCD
:10F1A0000F2DFE2CEE24C55DDE4FB881CB52D14031
:10F1B000EB0EF11C011D111DD601C501817090706F
:10F1C000A070B070DC0199278827E80EF91E0A1F8D
:10F1D0001B1F20EF30E040E050E0A222B322C42207
:10F1E000D52241E1AA0CBB1CCC1CDD1C4A95D1F7F1
:10F1F000EA0CFB1C0C1D1D1D81E090E0A0E0B0E0BE
:10F20000282239224A225B2235E1220C331C441C7D
:10F21000551C3A95D1F7E20CF31C041D151D57013E
:10F220006801AA0CBB1CCC1CDD1C85E192EE60E0E1
:10F230000F94C2F1C801AA27BB270F940DF2BB2778
:10F24000A12F902F8F2D0F940DF28E2D0F940DF274
:10F2500090E29093C6008091C00086FFFCCF809121
:10F26000C00080648093C000AEE3A093C60080918C
:10F27000C00086FFFCCF8091C00080648093C000F6
:10F28000C601AA27BB270F940DF2BB27AD2D9C2DDD
:10F290008B2D0F940DF28A2D0F940DF20F94DCF14B
:10F2A000CC5DDE4FE881F981C452D140F99709F471
:10F2B0004DCBF4E0EF2EF12C012D112D6E0C7F1CA7
:10F2C000801E911EF2CD83E093EE62E00F94F5F183
:10F2D0008AE192EE60E00F94C2F18091C00087FF56
:10F2E000FCCF1091C6001F751093C6008091C0001E
:10F2F00086FFFCCF8091C00080648093C0000F9493
:10F30000DCF1812F81548A3108F036C1163409F4BA
:10F3100095C0173490F4133409F44EC0143430F40B
:10F320001134F1F0123409F01DC130C0143409F465
:10F3300059C0153409F016C16BC01A3409F4C4C0A1
:10F340001B3438F4173409F48FC0183409F00AC19B
:10F35000A1C01B3409F4D2C01C3409F003C1E8C0B9
:10F360008FEF81B90DC082B1809582B980E090E0C5
:10F37000E0EDF7E03197F1F70196883C9105C1F790
:10F380008091C00087FFEFCF12B8EFC08FEF84B934
:10F390000DC085B1809585B980E090E0E0EDF7E0A3
:10F3A0003197F1F70196883C9105C1F78091C00033
:10F3B00087FFEFCF15B8D9C08FEF87B90DC088B1DF
:10F3C000809588B980E090E0E0EDF7E03197F1F7C3
:10F3D0000196883C9105C1F78091C00087FFEFCF6F
:10F3E00018B8C3C08FEF8AB90DC08BB180958BB9A7
:10F3F00080E090E0E0EDF7E03197F1F70196883C8E
:10F400009105C1F78091C00087FFEFCF1BB8ADC059
:10F410008FEF8DB90DC08EB180958EB980E090E0F0
:10F42000E0EDF7E03197F1F70196883C9105C1F7DF
:10F430008091C00087FFEFCF1EB897C08FEF80BBD1
:10F440000DC081B3809581BB80E090E0E0EDF7E0F6
:10F450003197F1F70196883C9105C1F78091C00082
:10F4600087FFEFCF11BA81C08FEF83BB0DC084B38C
:10F47000809584BB80E090E0E0EDF7E03197F1F714
:10F480000196883C9105C1F78091C00087FFEFCFBE
:10F4900014BA6BC08FEF809301010FC080910201FD
:10F4A00080958093020180E090E0E0EDF7E03197F5
:10F4B000F1F70196883C9105C1F78091C00087FF64
:10F4C000EDCF1092020151C08FEF809304010FC065
:10F4D0008091050180958093050180E090E0E0ED4A
:10F4E000F7E03197F1F70196883C9105C1F78091DB
:10F4F000C00087FFEDCF1092050137C08FEF8093DA
:10F5000007010FC08091080180958093080180E079
:10F5100090E0E0EDF7E03197F1F70196883C910536
:10F52000C1F78091C00087FFEDCF109208011DC088
:10F530008FEF80930A010FC080910B01809580931B
:10F540000B0180E090E0E0EDF7E03197F1F70196F4
:10F55000883C9105C1F78091C00087FFEDCF1092E4
:10F560000B0103C085E292EEEEC98091C00087FFD7
:10F57000FCCF8091C600EAC988E392EEE4C98CE131
:10F5800091EEE1C988249924933011F1943028F444
:10F59000913089F09230B8F408C0953061F195301F
:10F5A000F0F0963009F048C043C02B3109F042C951
:10F5B00091E06BE13FC96227C15DDE4F2883CF52E6
:10F5C000D14092E037C9B22FA0E0622793E032C960
:10F5D000822F90E0A82BB92B622794E02BC92E3004
:10F5E00009F039C3622795E0C05DDE4F19821882A9
:10F5F000C053D1401FC9E1E0F0E0EC0FFD1FC05D3A
:10F60000DE4F08811981C053D140E00FF11F2083E4
:10F610000F5F1F4FC05DDE4F19830883C053D14079
:10F6200062270A171B0709F005C9D80196E002C92D
:10F63000261709F010C303C0973009F0FBC87724E0
:10F640009981933109F412C19431C8F4963009F4C8
:10F65000D8C0973050F4923009F406C1933009F4C1
:10F660006DC0913009F059C253C0913109F477C08F
:10F67000923108F0BBC0903109F04FC2F5C098310B
:10F6800009F487C0993150F4953109F4EFC09531F0
:10F6900008F4C6C1963109F040C2C2C19A3109F4DA
:10F6A0006CC09A3108F491C09B3109F45BC09D3164
:10F6B00009F033C29D81903359F48F81882311F46E
:10F6C0009EE11CC0813011F091E018C098E916C08D
:10F6D000892F807591F0903539F4E0E0F0E089E011
:10F6E0008093570094910AC0983539F4E3E0F0E034
:10F6F00089E080935700949101C090E01A821B82A8
:10F700008D818C831D829E831F8227E030E009C299
:10F710001A8288E08B8381E48C8386E58D8382E581
:10F720008E8389E48F8383E5888780E589878FE5E9
:10F730008A8782E38B872BE030E0F3C18A818139AD
:10F7400041F0823941F0803911F48FE005C080E04A
:10F7500003C082E001C08AE01A828B8344C0772410
:10F76000739482C08D81882311F48EE12CC0813086
:10F7700011F081E028C088E926C01A82E1E0F0E0BB
:10F7800089E08093570084918B831C8224E030E0D1
:10F79000C8C18B81803589F48C81883039F4E2E0EE
:10F7A000F0E089E08093570084910DC0E0E0F0E044
:10F7B00089E080935700849106C0E3E0F0E089E09F
:10F7C0008093570084911A82DFCF8D81836C99E0FA
:10F7D000E1E0F0E0082E90935700E89507B600FCB2
:10F7E000FDCF1A821B8223E030E09BC180EC8A832C
:10F7F000CE5CDE4F188219821A821B82C253D1401E
:10F800008EC18A8190E0A0E0B0E0582F44273327D2
:10F8100022278B8190E0A0E0B0E0DC0199278827C7
:10F82000282B392B4A2B5B2B8D8190E0A0E0B0E098
:10F83000282B392B4A2B5B2B8C8190E0A0E0B0E089
:10F84000BA2FA92F982F8827282B392B4A2B5B2BCF
:10F85000220F331F441F551FC05EDE4F288339839C
:10F860004A835B83C052D1401A8259C13A81C95C34
:10F87000DE4F3883C753D140CA5CDE4F1882C6536F
:10F88000D1408B81C82EDD24CA5CDE4F488159816E
:10F89000C653D140C42AD52A933109F082C0CE5C28
:10F8A000DE4F88819981AA81BB81C253D1408050AB
:10F8B000904CA340B04030F583E0CE5CDE4FE88052
:10F8C000F9800A811B81C253D140F70100935B008C
:10F8D00080935700E89507B600FCFDCFCE5CDE4F65
:10F8E000088119812A813B81C253D14000501F4FAA
:10F8F0002F4F3F4FCE5CDE4F088319832A833B8313
:10F90000C253D140C05EDE4F488159816A817B81FC
:10F91000C052D140DE011B9631E08C9111962C91A2
:10F9200011971296C75CDE4F2883C953D140C85C3B
:10F93000DE4F1882C853D14090E0C85CDE4FE881AA
:10F94000F981C853D1408E2B9F2B0C01FA01609393
:10F950005B0030935700E89511244E5F5F4F6F4F67
:10F960007F4F0EEFE02E0FEFF02ECE0CDF1CC114F8
:10F97000D10499F685E0C05EDE4F088119812A81A5
:10F980003B81C052D140F80120935B008093570027
:10F99000E89507B600FCFDCF81E180935700E8951C
:10F9A00035C0C05EDE4F88819981AA81BB81C0527B
:10F9B000D140B695A795979587957C018601ABE0D8
:10F9C000AA2EB12CAC0EBD1E0BC0D5016D915D01F0
:10F9D000C7010F947FFE0894E11CF11C01501040F8
:10F9E0000115110591F7A60160E070E0440F551F65
:10F9F000661F771FC05EDE4FE880F9800A811B8199
:10FA0000C052D1404E0D5F1D601F711F1A82C05E33
:10FA1000DE4F488359836A837B83C052D1407FC0C5
:10FA2000FA80C55CDE4FF882CB53D140C65CDE4F16
:10FA30001882CA53D1408B81C82EDD24C65CDE4FAC
:10FA400008811981CA53D140C02AD12A1A828981DA
:10FA5000BE016D5F7F4F843121F59601C05EDE4FA0
:10FA6000E880F9800A811B81C052D1400BBFF701A9
:10FA700087919691DB018C9311969C936E5F7F4FDB
:10FA8000D801C7010296A11DB11DC05EDE4F88835B
:10FA90009983AA83BB83C052D14022503040F1F6F3
:10FAA00036C0C05EDE4F288139814A815B81C052F9
:10FAB000D1400894C108D108760100E010E0089414
:10FAC000C11CD11C0894E11CF11C011D111DE20E8A
:10FAD000F31E041F151F21BDBB27A52F942F832FB5
:10FAE00082BD2F5F3F4F4F4F5F4FF89A80B5DB01CC
:10FAF0008D93BD012E153F054007510761F7C05E8C
:10FB0000DE4F288339834A835B83C052D1409601FC
:10FB10002D5F3F4FFB01108204C080EC8A8322E0FE
:10FB200030E08BE18093C6008091C00086FFFCCF5F
:10FB30008091C00080648093C000C15DDE4FF88179
:10FB4000CF52D140F093C6008091C00086FFFCCF19
:10FB50008091C00080648093C000432F3093C60022
:10FB60008091C00086FFFCCF8091C00080648093AC
:10FB7000C000922F2093C6008091C00086FFFCCF6A
:10FB80008091C00080648093C0008EE08093C600A6
:10FB90008091C00086FFFCCF8091C000806480937C
:10FBA000C00065E1C15DDE4FE880CF52D1406E25D7
:10FBB00069276427FE01319610C090819093C6009A
:10FBC0008091C00086FFFCCF31968091C000806498
:10FBD0008093C0006927215030402115310569F715
:10FBE0006093C6008091C00086FFFCCF8091C0006A
:10FBF00080648093C00085B1805885B9772081F4F6
:10FC0000C15DDE4F0881CF52D1400F5FC15DDE4F35
:10FC10000883CF52D14090E0A0E0B0E00D941AF4F8
:10FC200027982F9880E090E020ED37E0F901319798
:10FC3000F1F7019684369105C9F700008091C00064
:10FC40008D7F8093C00081E180935700E895EE2777
:10FC5000FF270994FFCF90E00D941AF497FB092E2B
:10FC600007260AD077FD04D02ED006D000201AF443
:10FC7000709561957F4F0895F6F7909581959F4F08
:10FC80000895A1E21A2EAA1BBB1BFD010DC0AA1FDD
:10FC9000BB1FEE1FFF1FA217B307E407F50720F0F5
:10FCA000A21BB30BE40BF50B661F771F881F991F70
:10FCB0001A9469F760957095809590959B01AC01B9
:10FCC000BD01CF010895AA1BBB1B51E107C0AA1FAC
:10FCD000BB1FA617B70710F0A61BB70B881F991FED
:10FCE0005A95A9F780959095BC01CD010895F99991
:10FCF000FECF92BD81BDF89A992780B50895262F31
:10FD0000F999FECF1FBA92BD81BD20BD0FB6F89400
:0EFD1000FA9AF99A0FBE01960895F894FFCF63
:00000001FF
